:020000041000EA
:1000000000B5324B212058609868022188439860DF
:10001000D860186158612E4B002199600221596106
:100020000121F02299502B49196001219960352056
:1000300000F044F80222904214D00621196600F024
:1000400034F8196E01211966002018661A6600F04E
:100050002CF8196E196E196E052000F02FF8012189
:100060000842F9D1002199601B49196000215960AB
:100070001A491B48016001219960EB211966A021F2
:10008000196600F012F800219960164914480160C1
:100090000121996001BC002800D000471248134993
:1000A000086003C880F30888084703B5996A0420EC
:1000B0000142FBD001200142F8D103BD02B5186610
:1000C0001866FFF7F2FF186E186E02BD00000240BE
:1000D000000000180000070000035F00212200005C
:1000E000F4000018222000A00001001008ED00E03C
:1000F00000000000000000000000000074B24E7A12
:1001000000200420F7010010C3010010C5010010F9
:10011000C1010010C1010010C1010010C101001097
:10012000C1010010C1010010C1010010C701001081
:10013000C1010010C1010010C9010010CB01001065
:10014000CD010010CD010010CD010010CD01001037
:10015000CD010010CD010010CD010010CD01001027
:10016000CD010010CD010010CD010010CD01001017
:10017000CD010010CD010010CD010010CD01001007
:10018000CD010010CD010010CD010010CD010010F7
:10019000CD010010CD010010CD010010CD010010E7
:1001A000CD010010CD010010CD010010CD010010D7
:1001B000CD010010CD010010CD010010CD010010C7
:1001C00000BE00BE00BE00BE00BE00BE00F04BF888
:1001D000103800BEF2EB8871C4310010EC31001011
:1001E0003402001090A31AE700202149086006C8D5
:1001F00081F3088810471F48006800282FD10DA4FC
:100200000ECC002902D000F012F8F9E71A491B4A77
:10021000002000E001C19142FCD1194988471949E9
:1002200088471949884700BEFDE701C901C29A42C3
:10023000FBD37047EC310010C00000200004002008
:10024000383500100000042000000420383500106C
:1002500000100420001004200000000070470B482C
:1002600001F03EFE0047EFF30580C0B2704700008A
:1002700008ED00E0000000D010040020340D002044
:10028000811600105D0300107D1700105756000006
:1002900006005250ABB36053783000100600525045
:1002A000861C030288300010060052505422A29D82
:1002B000A430001005005250DE65F4683835001097
:1002C000F8B5C0460448054B10B5834203D0044B33
:1002D000002B00D0984710BD00040020000400202F
:1002E0000000000006480749091A8B10C90FC918F9
:1002F00010B5491003D0044B002B00D0984710BD17
:1003000000040020000400200000000010B5074C8D
:100310002378002B09D1FFF7D5FF054B002B02D026
:10032000044800E000BF0123237010BD1005002029
:1003300000000000F82F0010054B10B5002B03D073
:100340000449054800E000BFFFF7CCFF10BDC046E0
:100350000000000014050020F82F001010B582B036
:1003600069461B4B1A888A809B788B7102F088F84B
:1003700002F008FC1749184802F06CFC012110201B
:1003800000F02EF80121112000F02AF8012112209E
:1003900000F026F80121132000F022F80F4C032171
:1003A000200002F08FF8012002F082F8FA204000CD
:1003B00000F038FD002002F07BF8FA20400000F049
:1003C00031FD032201A9044802F006FEE7E7C0461A
:1003D000FC2F001040420F0000C00340F82F001017
:1003E000094A830094464022634410B51C68C0004B
:1003F0006240C02414408022520113431C60034B0E
:100400009C466044416010BD04C001400040014072
:10041000034BC0009C46604443681F20184070474F
:10042000004001400A4B80009C46042360440029A0
:1004300001D00C230821002A00D10B000268534090
:100440000C221A4080235B01184302607047C046AB
:1004500004C00140074BC0009C4660440368090487
:100460005940C0239B02194080235B01184301605F
:100470007047C04604400140074BC0009C466044A2
:10048000036809035940C0239B01194080235B0185
:10049000184301607047C046044001400123D02248
:1004A0008340120693629361094A83009446402276
:1004B00063441968C0004A40C021114080225201A3
:1004C00013431960034B9C46052360444360704707
:1004D00004C0014000400140F8B5EFF3108772B648
:1004E0000E4E3368002BFCD0BFF35F8FCB08C418CF
:1004F0000725A446C45C01230D40AB4018002040F2
:10050000234208D1624623431370BFF35F8F3060EC
:1005100087F31088F8BD100001F032F92C0100D0EB
:10052000F8B5CE4647468C4680B5EFF3108872B6D4
:10053000214D2C68002CFCD0BFF35F8F9A422CD841
:10054000D4080721055D0619012411408C402C4276
:100550001FD007218946063909E0D408055D061930
:100560004C460F001440A7403C002F4211D00132EE
:100570009342F2D201204042BFF35F8F00220E4B24
:100580001A6088F3108800280FDB0CBC904699464F
:10059000F8BD2C4310003470EEE7BFF35F8F0023EB
:1005A0002B6088F31088012040426346002BECD07A
:1005B000089801F0E5F8C0462C0100D0024B1868FD
:1005C0008007C00F7047C04600C006400021044BA2
:1005D000044ABFF35F8F02C39342FAD17047C0460B
:1005E000000100D0800100D0044A1078431CDBB227
:1005F000172B00D9102313707047C0460803002042
:1006000000B5054B83B00100009318221F23034857
:10061000FFF786FF03B000BD00300010B4050020D6
:10062000F8B5040006200D0001F026FA002845D098
:100630002B4B2C49E3185A4253418022D203944653
:100640005B421340284A63441360284A1360180031
:100650008A689043FBD1224B8021E3185A425341D0
:10066000234A5B0049000620995201F005FA29004F
:10067000C00001F063FCC30921D1402701222600FC
:1006800080256262A36200232C36AD0135432B60C6
:10069000062001F0F1F93900800001F04FFC6023E1
:1006A000E26A53406E221A4080235B0133431A6092
:1006B000104B236310232B600D3BA364F8BD0E4A3F
:1006C000934203D900230D4F0D4AD8E77F221040F3
:1006D000013040089F011A003F180300CFE7C046D1
:1006E0000080FCBF00C0004000E0004000F000407F
:1006F0006C0A002001030000FEFF0000C0FF3F0065
:10070000FFFF000083680B4810B5844661446244D3
:10071000090112019A18591854684B6801209C422B
:1007200001D802D00020C0B210BD12680B689A42F6
:10073000F9D8F7E7FFFFFF0F0A4B1968EFF31080B6
:1007400072B60A68002AFCD0BFF35F8F1B68BFF344
:100750005F8F00221A6080F3108840BF00200021C4
:100760007047C046480A0020F8B557464E464546F1
:10077000DE46E0B5434D81468A466A68EFF310884D
:1007800072B61368002BFCD0BFF35F8F2E68B47B6A
:10079000002C3ED0670033683F19033FDA195378C5
:1007A000B373002B00D1F373002393705370137055
:1007B000A968354A8C464946A21812016244116064
:1007C000514651603149D36091603268D2199370BB
:1007D00053701370737B9B46002B35D02200190099
:1007E000B068736898473268002820D05B46584646
:1007F0005B005B44D719033BB870D118D35C002B66
:1008000000D07B705B460C7073735C451DD0002676
:1008100026E06B68BFF35F8F1C6088F310880120AF
:1008200040423CBC90469946A246AB46F8BD5B466A
:100830005B005B44033BD3189C70D119D25D002A46
:1008400000D05A705B460B7074734A465346287D3D
:1008500000F060FC061EDAD02100286800F0D2FE0D
:10086000EB686A681B19013B1B78BFF35F8F00219F
:10087000116088F310880020002ED2D11802204386
:10088000CFE7C0460C030020FFFFFF0F3907001021
:10089000F8B5574645464E46DE46E0B599460CABA0
:1008A00019780DAB1B78050090469A460768002919
:1008B00012D1BE7B002E45D074003B68A419033CC6
:1008C0001B195A783100BA73002A00D1FA7300223A
:1008D0009A705A701A7003E00E004C006418033CC2
:1008E0002C4B00229C46AB6861449C464346090160
:1008F00061440B604B464B600A9B8B600B9BCB604B
:100900003B681B199A705A701A707B7B9B46002BB0
:100910002CD032005946B8687B6898473A6800285E
:1009200017D05B4658465B005B441419033BA0702C
:10093000D118D35C002B00D063705B460E707B73C4
:10094000B34514D030003CBC90469946A246AB4615
:10095000F8BD5B465B005B44033BD3189E701119E6
:10096000125D002A00D05A705B460B707E734246BF
:100970004B46287D00F0CEFB041E06D05346002BCC
:1009800003D13100286800F03DFE0E9B002BD9D02A
:100990001C70D7E7FFFFFF0FF0B5DE464E46574607
:1009A00045460023E0B58DB00A936B4B8200D358C7
:1009B0000B90994600239B464B46079300F020FB83
:1009C000079C06000F006268EFF3108572B613688B
:1009D000002BFCD022000794BFF35F8F2468637B59
:1009E0009946002B67D092685C4B90464B441B01A4
:1009F000984443461A685B6810001900801BB9418F
:100A000000295FDD0B9800F085FB00230026984647
:100A100000279A46079C6368BFF35F8F5A461A60A7
:100A200085F310885346002B08D10028C6D10DB09D
:100A30003CBC90469946A246AB46F0BD0A9B414657
:100A400018024B461843D047089009916268EFF3AB
:100A5000108572B61368002BFCD00794BFF35F8F2C
:100A60000899099A002A48DB114303D0079B1B69A8
:100A7000002B5DD1079B1B68DA7B002A07D0510051
:100A80008A1819688C4649466244033A51704A46AE
:100A9000DA734B46079A013BD168CA5C0132CA54EB
:100AA0005B46079A13615368BFF35F8F5A461A601B
:100AB00085F3108882E700230026984600279A468F
:100AC0000020A7E7002901D100289BD100212000A8
:100AD00000F0FAFC43461E685F689B68079A9A46D6
:100AE0004346DB689846D3684B44013B1B780A9326
:100AF0001B020343136100208CE72369002BB9D04C
:100B000033003C005B1A94411A002300A74219D815
:100B10009F421BD0594604910121039149460291FD
:100B200041460191514607980091FFF7B1FEB7E7A2
:100B300000F066FA089A099B06000F0092197B41A3
:100B40009942E5D901225242D317E3E79642E1D90F
:100B500001225242D317DDE7380A0020FFFFFF0FC2
:100B600010B5124C6368002B04D00A21104800F025
:100B700063FB10BD23000F4A1021206800F0C2FB68
:100B8000032000F031FA032000F036FB03200A496D
:100B900000F07AFAFFF728FD084B9C4603236044D7
:100BA0002375074B80006060DC60DEE70C030020EB
:100BB000480A002005070010990900104000003481
:100BC000380A0020004870470C030020F0B5574653
:100BD0004546DE464E46E0B585B0019310AB1B7826
:100BE00000270393002380469A46009243465A68A2
:100BF000EFF3108972B61368002BFCD0BFF35F8F40
:100C000043461D68AC7B002C4FD066002B6836191C
:100C1000033E9B195A78AA73002A00D1EA73424610
:100C20009F705F701F709268524B94460099019AB2
:100C3000E3181B01634419605A600E9A9A600F9A78
:100C4000DA602B689B199F705F701F706B7B9B46EF
:100C5000002B46D022001900A8686B6898472A68C4
:100C6000002831D05B4658465B005B449619033B35
:100C7000B070D118D35C002B00D073705B460C7041
:100C80006B735C452ED04346DB681B19013B18781B
:100C900043465B68BFF35F8F1F6089F3108853463C
:100CA000002B2ED10002204307E05B68BFF35F8F6B
:100CB0001C6089F310880120404205B03CBC90467E
:100CC0009946A246AB46F0BD5B465B005B44033BE6
:100CD000D3189C709119925D002A00D05A705B461F
:100CE0000B706C734346187D009A019B00F012FA5A
:100CF00082460028C7D043462100186800F082FCD5
:100D0000C1E7039B002B32D00E9B00200F99984720
:100D1000030004000D000B4329D000290DDA0098D0
:100D2000019902000B00121BAB41994215D81AD051
:100D300000920193039B9A4658E700F061F9020084
:100D40000B00A4185D412000290000900191AB42E6
:100D500003D8EFD100998A42ECD901235B42DC171A
:100D600000930194E6E700999142E1D9F5E700206C
:100D7000A3E7C046FFFFFF0FF0B504000D000626F5
:100D80007642F717C64636196F4100B58F4213D821
:100D900010D000F035F932003B00121A8B41002BC5
:100DA00014DC002B37D02900200000F05DF904BCD2
:100DB0009046F0BD8642ECD90026002700F020F9CD
:100DC00032003B00121A8B41002BEADD3000390063
:100DD000FFF7CAFC0028E6DB00239846BC460F4A12
:100DE0000F4F7B6A9C4504D8B96A8E42DBD99C457B
:100DF000D9D11168EFF3108072B60B68002BFCD0CC
:100E0000BFF35F8F1368BFF35F8F4146196080F3B4
:100E1000108820BFE5E7002AC5D0D7E7480A0020A0
:100E20000040054070B5060000F0EAF8FA22040020
:100E30000D00002330000021920001F011F900198B
:100E400069418D4205D802D0FFF796FF70BD8442FC
:100E5000FAD901204042C117F6E7C046F8B5CE46A0
:100E6000474680B506000C00FFF77EFC00280CDC2E
:100E70002D4B0020596A8C4203D89B6A0130B34243
:100E800045D30CBC90469946F8BD20BF274D6A68F3
:100E9000EFF3108772B61368002BFCD0BFF35F8F9F
:100EA0002B68C1B29C465B7B8B4235D0FF2303404D
:100EB0005A00914662461268994490464A46424416
:100EC000033A9278002A1DD0EA68000A904643440B
:100ED000013B1B78C0B2834221D06B68BFF35F8FA8
:100EE00000221A6087F310880F4A0020536A9C4240
:100EF000C7D8926A0130B242C3D2E41A601E84415C
:100F0000E0B2BEE72B699842E7D12A61E5E7641AAF
:100F1000601E8441E0B2B4E7FF230340D4E760469B
:100F200000F070FBD9E7C046004005400C030020EC
:100F3000F0B5D6464F464646C0B5EFF305833F228F
:100F4000134018001038EFF3108C72B6204D2A6849
:100F5000002AFCD0BFF35F8F0122110081401D4C9D
:100F6000884661631C4917000E788A463100C140EB
:100F70000F400A4215D019498200646A51588C42C8
:100F800019D3174BD25843469E4353461E70BFF3A6
:100F90005F8F00232B608CF31088002A06D09047C7
:100FA00004E0BFF35F8F2F608CF310881CBC904669
:100FB0009946A246F0BD0B4A9B00904643441A68EE
:100FC0001A60BFF35F8F00232B608CF31088EDE76E
:100FD000280100D000400540680A00204C0A00208B
:100FE000A4050020D03F054010B50100024A034887
:100FF000FFF772FA10BDC0461C300010660A0020D0
:10100000034B596A0A00986A596A8A42FAD17047B2
:101010000040054070B504000D00124A536A1900E3
:10102000966A536A8B42FAD13000190024184D4158
:10103000AB4211D80ED02B000A494A6A9A42FCD31F
:1010400007D1084A02E0516A994202D1916AA1424D
:10105000F9D370BDA642EED9012301246442E517FD
:101060005B42E9E700400540064A536A9942FCD8D2
:1010700007D1044B02E05A6A914202D19A6A824235
:10108000F9D370470040054070B504000D00EFF340
:10109000108672B61A4A1368002BFCD0BFF35F8F1C
:1010A000002D1BD0200000F0FFFC164981420AD021
:1010B000200000F001FD0121200000F0E3FC0123ED
:1010C000A340114A1360114BA400E550BFF35F8F9A
:1010D00000220B4B1A6086F3108870BD0B4BA200E8
:1010E000D5500122A2400A4920000B7893430B708F
:1010F000044900F00BFD0021200000F0C3FCE5E7EF
:10110000280100D0310F001038600540A4050020F0
:10111000680A0020F0B54F46D6464646C0B50700DF
:10112000304C616A0D00A66A616AA942FAD18B420D
:1011300008D805D001201CBC90469946A246F0BDB7
:10114000B242F7D9EFF3108972B627480168002937
:10115000FCD0BFF35F8F01252449BD408C46097840
:10116000204C0E002E438846F1B28A466146504616
:101170000870391D1E48890065630A51B9000B507B
:10118000216A0020294219D0616A0800A66A616AB2
:101190008142FAD18B4219D801D1B24216D8C24548
:1011A0001DD0104B1F201D625D6301230740BB4013
:1011B000104A1E381360634642461A70BFF35F8FB1
:1011C0000022094B1A6089F31088B4E70020BFF3AE
:1011D0005F8F0022044B1A6089F31088ABE701206F
:1011E000ECE7C04600400540280100D0680A002016
:1011F0004C0A002080E200E010B5EFF3108472B6D4
:101200000A490B68002BFCD0BFF35F8F012383409A
:10121000074A0848136202789A430270BFF35F8F4F
:1012200000230B6084F3108810BDC046280100D055
:1012300000400540680A0020024B9C46614489003A
:10124000016070474000003410B50400FFF7CCF98E
:1012500001002000FFF7F0FFFF23A380BFF35F8FA3
:1012600010BDC04610B50400FFF7BEF90100200014
:10127000FFF7E2FF01235B42A380BFF35F8F10BD46
:1012800010B504000120FFF7BBF9034BC3189B0006
:101290002360BFF35F8F10BD4000003470B50500C0
:1012A0000E001400002924D0002A24D080686B6826
:1012B0009847296800280ED063001B197200033B71
:1012C0009219CB18033A9E7088188A5C002A14D1B0
:1012D000047030000EE073009B196200033B12198A
:1012E000CB18033A9C7088188A5C002A00D05A7088
:1012F0000670200070BD0800FCE75A7004703000D2
:10130000F8E7C04630B583600023CCB243730133A5
:10131000047342608373C4730D000068012C06D906
:10132000421C0133DBB2137003329C42F9D1FF211E
:1013300029404B005918002340180338437030BD32
:10134000F8B5CE46474606000C0080B5002907D008
:101350004D0003686D18033D5A195778002F04D1CA
:1013600020000CBC90469946F8BD7900C919033994
:1013700088464344597889460021597051707368F2
:101380003A002100806898473368002814D042460C
:101390009A18947059195B5D002B00D053700F7030
:1013A000270049463000FFF7CBFF3900020030002C
:1013B000FFF774FF0400D3E7424641465D19AF7062
:1013C0009A185B5C002B00D06B701470E9E7C04684
:1013D000F0B557464546DE464E46E0B50D006B007B
:1013E00001685B19DF1E0400C85D83B00192CA1951
:1013F00000284CD043001B18033BCB185E78B44642
:10140000002E16D1019E002E3ED0E67B002E04D089
:1014100073009B19CB18033B5D70E57300282FD137
:101420000023537003B03CBC90469946A246AB469D
:10143000F0BD72006244033A89184A78904600224F
:101440004A7091465A70010032002000FFF726FFD3
:1014500043468246002B07D05B0021684344033B90
:10146000CB185A78002A16D1424651462000FFF781
:1014700015FF2168019BCA19002BC6D10028CFD0C7
:1014800043001B18033BCB1800219970C8E7019B50
:10149000002BBAD1C4E750008018033809184878E7
:1014A000834648464870587041462000FFF7F6FED4
:1014B000594680462000FFF743FF414602002000C6
:1014C000FFF7ECFE8046CFE7F0B54E464546DE46D8
:1014D0005746E0B5467B040075000068AD19033D32
:1014E00083B00191415D421900294ED04B005B1839
:1014F000033BC3185F78BC46002F18D1019D002D17
:1015000040D0E57B002D04D06B005B19C318033B72
:101510005E70E673002931D100233000537061738F
:1015200003B03CBC90469946A246AB46F0BD7A005B
:101530006244033A801842789346002242709146F2
:101540005A7020003A00FFF7A9FE5B468046002B48
:1015500007D05B0021685B44033BCB185A78002A14
:1015600017D15A4641462000FFF798FE019B010023
:1015700020684219002BC4D10029CDD04B005B1844
:10158000033BC31800209870C6E7019B002BB8D11D
:10159000C2E7500080180338091848788246484648
:1015A0004870587059462000FFF778FE534683462E
:1015B000002B07D05B0021685344033BCB185A78BB
:1015C000002A06D1594652462000FFF767FE83469F
:1015D000C7E7500080180338091848464F7848700C
:1015E000587051462000FFF759FE3900814620000F
:1015F000FFF7A6FE494602002000FFF74FFE824695
:10160000E0E7C04670B5040000292CD0437B8B4234
:101610002ED0056848004018033828188278002A20
:1016200021D053009B18033BEA5CEE188A4202D19A
:101630001BE0002A08D053009B18033BEB185A7894
:101640008A42F6D142785A70002301228370437097
:101650002000FFF7BDFE617B02002000FFF71EFEA9
:101660006073012000E0002070BD43783370EBE729
:1016700001221900FFF7ACFE60730120F4E7C046B9
:101680002F4B304A70B51A602F4A304B30491A60E0
:1016900010008B689843FBD12E4C2F4B9C4209D2F3
:1016A000013B1D1BAD080135AD002D1908CC984735
:1016B000AC42FBD100F082F8284A244B1A60244A3D
:1016C0009368DB018033FBD14022254B254C9A6780
:1016D0005A671A67DA66244B9C4214D2013B1D1BE1
:1016E000ED080135ED002D1904E00834FFF7BAFDCF
:1016F000AC4208D063792000002BF6D10834FFF704
:10170000A3FDAC42F6D1194C194DA168C0222800A6
:1017100000F016FDA560FEF759FF00F02FFBFFF764
:101720001FFA144C144B9C4209D2013B1D1BAD08FF
:101730000135AD002D1908CC9847A542FBD170BDED
:1017400000E00040BFCDFBFEFE7F3C0000F000400B
:1017500000C00040E8030020F8030020FFFFFF0165
:1017600000F00140E0030020E803002000ED00E06D
:1017700000000020F80300200004002000BEFDE768
:101780000FB400B5084883B000F0B0FD049B002BF7
:1017900007D005A91800019100F082FB034800F072
:1017A000A5FD00BEFDE7C0464030001050300010DF
:1017B00010B50148FFF7E4FF5430001030B50C209D
:1017C00083B000F049FBFEF7F9FE00280ED0944BE1
:1017D000944A1A605A609A60DA601A615A619A6192
:1017E000DA611A62904A5A6203B030BD8F4CA0672A
:1017F00000F03AFB01228E4B1A60636C012BFCD186
:1018000003228C4B1A60894A936B012BFCD1022472
:101810000121894A89480533009400F0CBFA052359
:10182000874A01218748009400F0C4FA864B5A6821
:10183000FF2A02D8802252005A608022784C7D4BC9
:1018400021691201804D1A60002905D0606900F0FD
:1018500075FB01300138FDD1E0217B4B02201A6875
:101860001140802252012A43116019684840032127
:101870000140116004219A681142FCD0802280212D
:1018800092012A4309011160802252005A606F4B75
:1018900023616F4B5968FF2900D85A6003226C48B6
:1018A000634B01211A60020093681942FCD0E025C5
:1018B00013681D4080235B0103431D6012684A408A
:1018C0000321114019600221614A93681942FCD03A
:1018D000802380219B0103430901196080215D4B16
:1018E0004900516063615C4B5A68FF2A00D8596017
:1018F00080225A4BE1691201574D1A60002905D028
:10190000606900F01BFB01300138FDD1E022524933
:101910000B681A4080235B012B431A6080238022CE
:101920009B012B4312011A6080223E4B52004A60F9
:10193000E3614B4B5968FF2900D85A608022494B1C
:10194000216A1201464D1A60002905D0606900F035
:10195000F5FA01300138FDD1E02241490B681A4007
:1019600080235B012B431A60802380229B012B4341
:1019700012011A60802380225B004B60294BD20247
:101980002362394B5968914200D25A608022374B0A
:10199000616A1201344D1A60002905D0606900F0B7
:1019A000CDFA01300138FDD1E0222F490B681A40F1
:1019B00080235B012B431A60802380229B012B43F1
:1019C00012011A608023DB024B60174B6362284BC5
:1019D0005A68FF2A02D8802252005A608022254B82
:1019E000A1691201224D1A60002905D0606900F03A
:1019F000A5FA01300138FDD1E0221D490B681A40DB
:101A000080235B012B431A60802380229B012B43A0
:101A100012011A6080235B004B600E4BA361E3E66A
:101A2000B8050020006CDC021BB7000000800040FD
:101A30003CB0004030B00040002F685900800240A8
:101A400000389C1C00C0024030800040001BB700E2
:101A50003C800040405973075480004054B000401F
:101A60006080004060B000406C8000406CB000407E
:101A70004880004048B00040014B8000C05870478B
:101A8000B805002001238340002904D0034A1360D5
:101A9000034A13607047034A1360FBE780E200E0EB
:101AA00000E100E080E100E0024B10309B68800024
:101AB000C058704700ED00E070B50D00EFF31086E0
:101AC00072B60F4A1368002BFCD0BFF35F8F0D4B2B
:101AD00010309B6884001B590B4A934203D09D42EF
:101AE00001D0FFF765FE074B9B681D51BFF35F8F69
:101AF000BFF35F8F0022024B1A6086F3108870BD1F
:101B0000240100D000ED00E0CD010010F0B5DE466C
:101B100057464E464546E0B50C0083B0EFF3108AB9
:101B200072B65B4A1368002BFCD0BFF35F8F1022A4
:101B3000914681444A46574B96009B689D59564BA7
:101B400098469D4205D0A54216D0544FEB1B2F2B33
:101B500014D9504B9B689D51BFF35F8FBFF35F8FCC
:101B600000224B4B1A608AF3108803B03CBC9046AD
:101B70009946A246AB46F0BD1D00EAE7012383402B
:101B80009B465A46464B1B681A4000925A46454BA4
:101B90001A60BFF35F8FFEF766FB0190002803D049
:101BA000814501D0FFF704FE01232A009A43130068
:101BB000DB1B5B4142495943090D93689C4208D1A4
:101BC0005BE043001B189B00FB189868A04211D0F3
:101BD0001A00062010560028F3DA009B002B05D0CF
:101BE0005A46314B1A602E4B1A60B2E75A462D4BBB
:101BF0001A60AEE706201856002822DB42001118B2
:101C000089007C188846A1689960E179D97106211C
:101C100061569971A1797F291FD8A488F91A6405A2
:101C2000241544440919E0240905490D24022143DF
:101C3000998012181D4B9200BF181A781870BA714B
:101C4000CBE7019800280BD1FF30907118489080A5
:101C5000164A107811709871BFE7BD210902E7E7B5
:101C6000144A1549D21A083A5002400D014399808E
:101C7000124952080A43DA80AFE7062010561300D3
:101C80000028BBDA019A002AEAD14546E0E7C046BF
:101C9000240100D000ED00E0CD010010340300204D
:101CA00000E100E080E100E080E200E0670A00205F
:101CB00000BDFFFF6E03002000F0FFFF00F8FFFFF4
:101CC000AAAA0000F8B5012504000543FEF7CBFAE7
:101CD0000200EFF3108672B621490B68002BFCD08E
:101CE000BFF35F8F1F492000401A4041224B4343FE
:101CF0001B0D1D48920087685BB2BF58AF421CD0D5
:101D000006228A569A421CD012228A569A4222D021
:101D10001E228A569A4220D02A228A5603209A42AC
:101D200010D0124A11781370A171BFF35F8F002297
:101D30000B4B1A6086F31088F8BD81680C488850F8
:101D4000EFE700204200121892008918FF228A71E2
:101D5000084A8A80E5E70120F4E70220F2E7C0465E
:101D6000240100D03403002000ED00E0670A0020C9
:101D7000CD01001000BDFFFFAAAA0000F0B50022AF
:101D80000324FF27802620003D00094B11009C46BC
:101D90001040C0008540A14361440B680132AB4351
:101DA000350085402B430B60202AECD1F0BDC046A6
:101DB00000E400E0F8B504000C2017001D000E0040
:101DC00000F0BCF84101091A8B01591AC900091821
:101DD0008901380000F0B2F8069A2B04120313436D
:101DE0002268002A21DB184AA21851424A41802168
:101DF00049018C4652420A40144962440A6014491F
:101E00000A60144917008D68AF43FBD1C021221D21
:101E10008901114321222660A0600A602268002AFD
:101E2000FCDAE36008230B60F8BD3F2221680A401A
:101E3000B242D8D1A2681205120D8242D3D1E26813
:101E4000002BD0D1F0E7C0460040FDBF00E00040CD
:101E500000F0004000C000408023024A9B00034382
:101E6000D362704700800540AA23064A1B01136015
:101E70002F230549D360054B19605368002BFCDA0A
:101E80007047C0460040024000B0FA0000600240C7
:101E900010B5002800D110BD00F01AFAFBE7C046CB
:101EA00010B5094A0300146884B0002C08D0012240
:101EB00000910648524203A9A047012004B010BD7A
:101EC00000F014FA0020F9E72C0A0020911E0010FF
:101ED00001480421014B184780030020011F001016
:101EE000142310B50100188804331B88984710BDCF
:101EF000162310B50100188802331B88984710BDBF
:101F0000F0B5C64600B5002916D0142304000125FB
:101F100098461827890046184346216818883B8848
:101F2000984701C4431E984140420540A642F3D160
:101F3000280004BC9046F0BD0125F9E7114A936FD3
:101F40009B0813D210665166002905D0FFE7FFE712
:101F5000FFE7516F106F704704B5002801D00020D3
:101F6000C04301F021F8002104BDC046F0B5146E55
:101F7000556E576F166FFFF7E5FF14665566576786
:101F80001667F0BD000000D0132370B51D78012D39
:101F900010D00BDD2448FFF7ABFF244C010080225A
:101FA000200000F0CDF8022D01D070BD1F4C204A5A
:101FB000A264FAE72E001D4C1D4AA3085B421E4096
:101FC0001D422FD0330022602020B1006118801BF9
:101FD0000A604A608A60CA600A614A618A61CA61AD
:101FE0000A624A628A62CA620A634A638A63CA638D
:101FF0000A644A648A64CA640A654A658A65CA656D
:102000000A664A668A66CA660A674A6740081028EE
:1020100003D18A67CA67A264C7E71E339B00E250F8
:10202000A264C2E70023CFE753440000700A0020F7
:102030003520001007B5604601880A0A0230DF2A01
:10204000FAD1C9B2820804D3028840880004104340
:1020500000E00068014A5050039007BD700A00205C
:1020600051434343C9188C46110C83B24B4310B4FF
:10207000040C614392B280B2504362431C041B0CB7
:10208000001910BC59411304120CC018514161448D
:1020900070470000132310B512481C78FFF728FF83
:1020A0000100012C0AD003DD80220F4800F048F81F
:1020B0000E48FFF715FF0E4B186010BD0A4C542256
:1020C000200000F03DF80B4B6365A365E3652366D4
:1020D0006366A366E36623676367A367E3672362B8
:1020E000E361E5E753460000700B00204C3300002D
:1020F000700C0020F920001007B5604601880A0A1C
:102100000230DF2AFAD1C9B2820804D3028840889B
:102110000004104300E00068014A5050039007BDDE
:10212000700B002001480421014B18479003002048
:10213000011F0010014B1B6818470000900300208E
:10214000014B5B681847000090030020F8B5474634
:10215000CE460D0080B516000700002A20DD4B1E7C
:1021600098461A4B002400209946002C2BD0434659
:102170001B5D0D3B5A425341DBB22A5D0A2A13D044
:102180000134A642F1DC864203DD311A3B6828188F
:102190009847AD19013D2B780D3B5A4253413B7492
:1021A0000CBC90469946F8BD002BE9D1A04203DA59
:1021B000211A3B6828189847484602213B68013499
:1021C00098472000DDE73B7CD7E7C046D4300010BD
:1021D000F0B557464546DE464E46D023E0B51B06D1
:1021E0001C68374B83B007000D00180001A990460A
:1021F0009A4600F0E1FE8146002808D1019B64B2B6
:102200009C4204D0504600F0EFFE012399466B1C1F
:1022100003D1380000F08AFE05002A4B1C68002C10
:102220002FD00A23284E9B4602E0E468002C28D0D9
:102230002268002AF9D03368002B01D0A342F4D1E0
:10224000637C002B2AD02A0039002000FFF77EFF94
:102250004346002BE9D06B465A461A71637C002B2B
:1022600020D0237C002B26D00121236801A8984789
:102270006B461B790D3B5A4253412374E468002C92
:10228000D6D14B46002B12D1681E8541E8B203B06F
:102290003CBC90469946A246AB46F0BD29003800AA
:1022A0009047D5E70121236801A89847BDE750462C
:1022B00000F072FEE8E70221044823689847D7E758
:1022C000E00300202006002024060020D430001067
:1022D00010B582B06B4604000022D81D01210470A5
:1022E000FFF776FF200002B010BDC04670B50400B5
:1022F00000F01CFE0122010005002000FFF768FF2E
:10230000084B1C68002C06D06368002B05D098474A
:10231000E468002CF8D1280070BDE468002CF3D1EB
:10232000F9E7C046200600200D4A1368002B13D0A1
:10233000834202D109E0984208D01A00DB68002BE2
:10234000F9D1002900D0D06070471A000029FBD1D4
:10235000DB68D360C160F7E70029F5D01060F3E7D0
:1023600020060020F0B50D1E15DD0E4B0D271A6856
:102370000D4B4519D31859424B410C495B005E5E29
:1023800020210478A64207D093691942FCD101307C
:102390001460A842F5D1F0BD93691942FCD11760D1
:1023A000F2E7C046600A00200080FCBF6C0A0020F3
:1023B00030B50500002912DD00201024094B013D35
:1023C0001A6893691C4208D1013093691C42FCD100
:1023D00013682B548142F4D130BD0028FCD1032076
:1023E0004042F9E7600A002070B51C000A4B150056
:1023F0001860FEF715F9002D03DB02212800FDF718
:10240000EFFF002C03DB02212000FDF7E9FF012193
:102410000248FFF789FF70BD600A0020A00300207A
:1024200010B5114C114B22689A4210D1104B6268C2
:102430009A420CD10F4BA2689A4208D100230E4851
:102440002360FFF74DFD0021030000209847074B54
:1024500000212360064B09486360064BA360FEF72A
:10246000D9FD0023236010BD00040020DE8116F09A
:10247000299B72BD7ABE59D355420000400D03001E
:1024800010B51920FEF70AF8D0238022E1211B069F
:1024900092045A620448054B002218604902012345
:1024A000FFF7A2FF10BDC046004003405C0A0020B9
:1024B000D02380221B069204002801D05A61704765
:1024C0009A61FCE7F0B50500081E16DD0E4B2024CE
:1024D0001A680E4B2F18D31859424B410C495B0018
:1024E000595E0D239C462E78B14207D093691C4259
:1024F000FCD101351660BD42F5D1F0BD93691C4297
:10250000FCD163461360F1E75C0A00200080FCBF49
:102510006C0A0020F0B5982357464546DE464E46E5
:102520004B4AE0B5D75880253C0085B06D02883B0A
:102530002C4003932F4214D0012123200022454B2D
:102540002C001954D9702F315A541A7400200132BA
:10255000414900F0B1FA8022404B92021A65404B8B
:102560000393FB0630D480239B011F420CD18023B0
:102570005B011F4215D1BC4265D105B03CBC904601
:102580009946A246AB46F0BD1C43314B1B6DDB03A5
:1025900053D58022314B52021A6580235B011F42C2
:1025A000E9D000222A4D00212A60002001321C437C
:1025B00000F058FA8022294B12031A65EB6CDB03FA
:1025C000D9D500F083FCD6E7214B9A6D002A26D09E
:1025D0009A46224BB946002601259B46170003E088
:1025E0006D000136202E19D02F42F9D05346DB6DF5
:1025F0005B4601229D6573085C00164B90469C4625
:10260000B243A41864016444200000F0C9F8002813
:1026100007D1AF4301366D00002FE3D14F46039C35
:10262000A1E74346A28AA17800200093002300F08E
:102630006BFA200000F0AEF8EBE701220221002047
:1026400000F09CF9A5E7210006487940FFF798F8CB
:10265000000011502C0600200000105000301150D6
:10266000100001001431001010B501210520FFF702
:1026700009FA10BD8022024B5202DA647047C0464C
:102680000020115070B5050000F05CF805201C49D1
:10269000FFF712FA80221B4C00212000D200FFF726
:1026A00049FD194B194A40201A6080235B00638062
:1026B00001220023212616496270A083A377A1601E
:1026C0000B60A0870238A355235412491248603684
:1026D000FF366360E16022706684A062036063621B
:1026E0002033E2540D4BE1621A6480229205DA64D1
:1026F00090220B4928009950FFF7BCFF70BDC046DF
:10270000152500102C060020300A002080011050F2
:102710008400105000011050800010500000115033
:10272000103001007F2110B58078044AC3099B0056
:1027300001409A580248FFF723F8C046B40300202E
:102740002831001080220E4B520410B51A600D4B38
:102750000D491A6010008B689843FBD10B4C9C22EA
:1027600000212000FFF7E6FC8022002152010848EA
:10277000FFF7E0FC092363670333A36710BDC0467E
:1027800000E0004000F0004000C000400000115098
:102790000000105000230361436183617047C0460D
:1027A000F8B5467C0400002E00D169E083684078CB
:1027B000196889058D0D002847D1A18A691889B249
:1027C000A182A58B628A2B1C3F2D2BD99FB2BC46C0
:1027D000551AAFB2BC4523D89DB2E3828A424CD38E
:1027E00049D0002826D08022D2002A43E378002B4B
:1027F00002D0802189010A4301214B40A168E37086
:102800000B685B0543D4234B13400B60FFE7FFE7E6
:10281000FFE7FFE7FFE7FFE70020A3681A60F8BDC6
:102820002B1CD9E740239FB2BC46551AAFB2BC451A
:10283000D2D9F5E7A3692A009C46E0686144FFF716
:102840007FFC842212022A43D0E7A369A08A9C4617
:10285000E1682A006044FFF773FCA18A6078691878
:1028600089B2A1820028ACD0E38AAB42A9D9002367
:102870006182E382D3E73000D1E70748FEF780FFAB
:102880007F238178054A06481940FEF779FF20002A
:10289000FFF748FFFFFBFFFF74310010B403002077
:1028A00048310010F8B54746CE4680B5294F05009F
:1028B0003B78002B04D001200CBC90469946F8BD13
:1028C000372200212448FFF735FC244C2000FEF776
:1028D000BBFC234B1C60234C20001C30FEF7D0FCBB
:1028E000200000F091F9204B204E1C60204B9846B0
:1028F000002B04D0300000E000BF1E4B18604246A1
:1029000000243378002A1DD01B4A9046194A91466C
:102910009C4210D31BD14346984701343378E4B22C
:10292000A342F5D22800FFF7ADFE2800FFF79CFE7A
:1029300001233B70BFE74A46630012681B19DB00A6
:102940009B58E9E700F014F93378002BEAD0002314
:102950001B68FFDE650A0020640500205C0500207E
:102960009C050020BC030020A0050020640A002074
:10297000000000002C050020712B001030B585B040
:1029800005000C000C22002101A8FFF7D3FB6B46C9
:102990001D715C71042C29D005D8022C38D0032C71
:1029A00051D105B030BD052C4DD12C4B1A78D20732
:1029B000F7D504211A788A431A70294B1C68E269FA
:1029C000EFF3108172B61368002BFCD0BFF35F8F5A
:1029D0002162200001A900F0DBF8E269236ABFF35D
:1029E0005F8F0021116083F31088DAE71B4B1A78A0
:1029F000D207D6D504211A780A431A70184B1C68DE
:102A0000E269EFF3108172B61368002BDED1FBE7A9
:102A1000124B1A78D207C4D501211A788A431A704A
:102A20001A780331A2431A7000225A701A788A4326
:102A30001A700B4B1C68E269EFF3108172B61368D1
:102A4000002BC3D1FBE7064B1C68E269EFF3108152
:102A500072B61368002BB9D1FBE7C04664050020AD
:102A6000A005002070B584B001AD06000C000C225A
:102A700000212800FFF75EFB01236B700D4B2C71CA
:102A80001C682E70E269EFF3108372B6116800299A
:102A9000FCD0BFF35F8F23622900200000F078F89C
:102AA000E269236ABFF35F8F0021116083F310880E
:102AB00004B070BDA0050020002330B585B001AD85
:102AC0006B8028700633082202A86B70FFF738FB72
:102AD0000C4B1C68E269EFF3108372B61168002991
:102AE000FCD0BFF35F8F23622900200000F050F874
:102AF000E269236ABFF35F8F0021116083F31088BE
:102B000005B030BDA0050020F0B5C646804600B532
:102B100084B001AC0F0016000021082220001D0027
:102B2000FFF708FB43462370072363700F4B657163
:102B30001D682771A660EA69EFF3108372B6116809
:102B40000029FCD0BFF35F8F2B622100280000F02A
:102B50001FF8EA692B6ABFF35F8F0021116083F3CE
:102B6000108804B004BC9046F0BDC046A00500200B
:102B700010B52C2200210248FFF7DCFA10BDC04638
:102B80003005002010B50020FFF78CFE10BDC046B8
:102B9000F8B5040040690E00002803D00121494225
:102BA00000F012FAE289218A95B2531A9BB291423F
:102BB00002D962899B1A9BB2A2889A4220D02B002C
:102BC000954203D39B1A9BB29A42FBD9E2882168B3
:102BD0005343C8183100FFF7B3FAA389AB420AD9AF
:102BE0000135ADB260690127E581002801D000F010
:102BF000D3F93800F8BD6389ED180135ADB2F1E7BE
:102C0000277A002FDBD1F4E710B5040040690028D3
:102C100003D00121494200F0D7F9A069002803D070
:102C20000121494200F0D0F90023E3812382A388E7
:102C300060695B009BB25A1E5B42A28163810028DF
:102C400001D000F0A9F9A069002801D000F0A4F992
:102C5000012010BDF8B557468246374B45465344D0
:102C60005A425341802292029446DE464E465B42CF
:102C7000324A1B046344E0B51360314A8846314947
:102C800013601D008A689543FBD10620FEF7F4FE11
:102C90004346414681468020DF0D5E028A029B0D3D
:102CA0000221400005E0914507D392197B41814202
:102CB0003DD00C000231002BF5D0802627023F1BAF
:102CC000760002E03F1B012E33D039004846B34660
:102CD000013EFFF733F98045F4D25946614335028E
:102CE00053461C611B6852465D40FF231B021D407A
:102CF000802307205B0113431D6012685040CF22E0
:102D000002401A605246802303209B0124321A435A
:102D100010605246101D1843022303604846FFF717
:102D20000DF93CBC90469946A246AB46F8BD0C0056
:102D3000C3E72100D4E7C0460040FCBF00E00040EC
:102D400000F0004000C0004080210B4A4902136D92
:102D50000B42FCD0092304215367084A7733D15032
:102D6000074B00201A68074B0021DA67064B1A68E8
:102D7000064B1A647047C0460000115000301150D5
:102D80002806002000400140340A002000C0014015
:102D9000F0B5C64600B5102084B0FDF739FB082811
:102DA00069D0364B364FDB6F364E3B60364B0122D7
:102DB0001B6C01210F203360FDF734FB02210F2033
:102DC000FDF75AFB0822314B03211B680F205A40A4
:102DD0001F2313402E4A1360FDF73CFB02220421FF
:102DE0002C4BDA677E3299502B4B743A5A671B6D25
:102DF0001B079B0F012B3BD1FDF7E4FE8046FEF73E
:102E0000FFF8FA2204000D000023920012196B4112
:102E1000994211D80ED001210291002101911F4940
:102E200040460091FDF7D2FE002809DB04B004BC47
:102E30009046F0BD9042EED901225242D317EAE704
:102E4000FA2000218000FEF7E5F88021124A4902AD
:102E5000136D0B42FCD0092304215367104A7733CA
:102E6000D1503A68054BDA673268074B1A64DDE7E0
:102E7000FEF79EFCC0E70B48FEF782FC00400140D5
:102E800028060020340A002000C001407C40014098
:102E90007C5001400020115000001150492D0010BD
:102EA00000301150A0310010074B10B51B6D1B07EF
:102EB0009B0F03D1FA200021800010BDFFF768FFAF
:102EC00000200021F9E7C0460000115070B584B021
:102ED000FDF778FE0600FEF793F8FA2204000D00D5
:102EE0000023920012196B41994217D814D0012186
:102EF0000291002101910B4930000091FDF766FE1F
:102F0000002807DA032208490B6D9B081A42FBD000
:102F1000FFF73EFF04B070BD9042E8D90122524253
:102F2000D317E4E7A92E00100000115010B5830755
:102F300027D00378002B26D00300032102E01A7863
:102F4000002A1CD001330B42F9D119680F4A104CEA
:102F50008A188A4322420FD1043319680B4A8A180F
:102F60008A43224208D104331968084A8A188A43DE
:102F70002242F1D000E001331A78002AFBD1181A5E
:102F800010BD0300E1E70020FAE7C046FFFEFEFEA9
:102F900080808080F8B5C04601B40248844601BCF8
:102FA000604700BF2D02002001B40248844601BCE6
:102FB000604700BFD502002001B40248844601BC2E
:102FC000604700BF2101002001B40248844601BCD3
:102FD000604700BF7D01002001B40248844601BC67
:102FE000604700BF8902002001B40248844601BC4A
:082FF000604700BFC100002092
:102FF800310D0A00010203004E6F207370696E6C78
:103008006F636B732061726520617661696C6162C0
:103018006C650000486172647761726520616C615B
:10302800726D20256420616C726561647920636C1F
:1030380061696D65640000000A2A2A2A2050414E01
:103048004943202A2A2A0A000A00000048617264BB
:10305800206173736572740052656C6561736500F5
:10306800626F6F74325F773235713038300000002C
:10307800312E322E300000007069636F00000000AE
:1030880074696E797573625F6465765F6869645F99
:10309800636F6D706F736974650000004175672018
:1030A800313620323032310006005250BBFF3CB678
:1030B8008030001006005250E182887F683000108E
:1030C80006005250D3F07542603000100D0A00001F
:1030D800646F75626C65207265736574202D3E207F
:1030E800424F4F5453454C000600525053B4F4A17C
:1030F800D83000104C45440009005250000000022E
:10310800FC3000100800525012000000556E686133
:103118006E646C65642049525120307825780A0025
:1031280065702025642025732077617320616C7297
:103138006561647920617661696C61626C65000023
:1031480043616E277420636F6E74696E75652078AD
:10315800666572206F6E20696E616374697665209A
:103168006570202564202573000000005472616E8C
:1031780073666572726564206D6F72652064617430
:1031880061207468616E2065787065637465640099
:103198006F757400696E00004E6F742065787065F5
:1031A8006374696E6720444D20746F2062652066E1
:0C31B800756E6374696F6E2038000000B3
:1031C400B4020010A80200109C020010B0300010DD
:1031D40090020010BC300010C8300010F030001015
:0831E400003100100C31001055
:1031EC0070B5D024002524060268EFF3108172B666
:1031FC001368002BFCD0BFF35F8F04230022C3564F
:10320C00A2565E1C16D093420CD14379012B09D9DE
:10321C00013B43710368BFF35F8F00221A6081F397
:10322C00108870BD0368BFF35F8F1D6081F3108839
:10323C0020BFD9E743790271002BEBD0E8E7C046F9
:10324C00030030B50068EFF3108472B60268002AF0
:10325C00FCD0BFF35F8FD022002012061056042240
:10326C009A56551C14D082420BD0002913D0002042
:10327C000A601B68BFF35F8F00221A6084F310880A
:10328C0030BD58790128F0D9013858710120F0E788
:10329C0018710120EDE70020EBE7C046F0B5C646FB
:1032AC0000B50C00804600F0B7F8FA2206000F00BB
:1032BC00200000230021920000F09EF88019794133
:1032CC0004000D008F422DD82AD0D02700263F06AF
:1032DC0043461B68EFF3108272B619680029FCD0C4
:1032EC00BFF35F8F434600211B7979565BB2581CA4
:1032FC001CD0994203D143465B79012B22D843461B
:10330C001B68BFF35F8F1E6082F3108820002900BA
:10331C0000F07AF80028DBD0002004BC9046F0BD09
:10332C008642D2D901246442E517CEE7434619718F
:10333C0043461B68BFF35F8F0021196082F310882E
:10334C000120EAE74146013B4B71F1E70268EFF3DC
:10335C00108172B61368002BFCD0BFF35F8F4379DA
:10336C00002B0CD00133DBB24371FF2B11D003685F
:10337C00BFF35F8F00221A6081F310887047FF2221
:10338C0002710268BFF35F8F136081F3108840BF36
:10339C00F4E703710368BFF35F8F00221A6081F3B7
:1033AC00108840BFEAE7C04630B50400101E0AD0B2
:1033BC000D008A180221E3681942FCD02B780135E4
:1033CC00A360AA42F7D1E3685B0704D50421A36884
:1033DC00E3681942FBD11021E3681942FCD1E36880
:1033EC005B0704D50421A368E3681942FBD10123D0
:1033FC00236230BD7047C04601B40248844601BC0C
:10340C00604700BF6120001001B40248844601BC33
:10341C00604700BF5D0E001001B40248844601BC39
:10342C00604700BF011000101000000024030020B2
:10343C000000000010040020E00500200000000047
:10344C0000000000F005002000000000000000005B
:10345C00100000000000000000000100000000004F
:10346C00000000000000020000000000000000004E
:10347C000000030000000000000000000000FF003E
:10348C000000000000B5486801318E4600477046C8
:10349C0009380149884700BDC51C00100000000018
:1034AC00503300004C330000543300005233000002
:1034BC004D5300004D4300005334000043340000D2
:1034CC006523001000000000B12300100000000074
:1034DC0000010000983100109C310010740C002089
:1034EC0010000C000000E0FF1F00000000000000B6
:1034FC0000000000000000000000000000000000C0
:10350C00000000000000000025210010D11E00105A
:10351C00891F001095200010390300102124001081
:0C352C0000000000000000000000000093
:04000005100001E9FD
:00000001FF
