:10000300D6D0CEC4B2E2CAD400BBB6D3ADC4FA00D4
:10001300D2F2CEAAD7A8D7A200CBF9D2D4D7A8D2EE
:10002300B500D6D001000100010001003FF821080E
:1000330021082108210821083FF8210801000100B7
:1000430001000100CEC4020001000100FFFE1010F8
:1000530010100820082004400280010002800440A0
:1000630008203018C006CFD400001FF01010101065
:100073001FF0101010101FF004404444244414488F
:1000830014500440FFFE0000CABE00003FF8000009
:10009300000000000000FFFE010001001110110824
:1000A30021044102810205000200B2E2000427C4D8
:1000B3001444145485544554455415541554255427
:1000C300E55421042284224424140808CAD40028B5
:1000D30020241024102007FE0020F02017E0112018
:1000E30011101110151019CA170A02060002C8AB25
:1000F3000100010002800440082010102FE8C1060F
:10010300010001001FF00100010001007FFC00005D
:10011300B6AF004000407C40004001FC0044FE4478
:1001230020442044208448844484FD044504022858
:100133000410B5E70100010001003FF82108210880
:1001430021083FF82108210821083FF8210A01026C
:10015300010200FED7D300007FF80010002000400A
:1001630001800100FFFE0100010001000100010008
:10017300010005000200BBB600800080FC8004FC87
:10018300050449082A401440104028A024A0451023
:100193008110020804040802D3AD00002080133C40
:1001A300122402240224F2241224122412B4132847
:1001B30012201020282047FE0000C4FA090009007D
:1001C30011FC32045448995011481244144411400C
:1001D300108002005104511290120FF0D2F200006D
:1001E3007FFC40044104410441045FF44104428420
:1001F300424444244814501440047FFC4004CEAAD3
:10020300010021001100110001007FF8020802081B
:100213000288044804480808100820084050802039
:10022300D7A80100010001003FF802000200FFFE11
:10023300040008000FF00010002006400180004079
:100243000020D2B504400440044004404444244404
:1002530024481448145014600440044004400440EB
:10026300FFFE0000CBF90208071C38E02080208045
:100273003E8022FE228822883E88208820884108EA
:10028300410882080408D2D400100410221021105F
:10029300211020102010202020202020244028502E
:1002A3003088210402020402D7A2008020401000FB
:1002B30017FC804040404040104013FC2040E04089
:1002C3002040204020402FFE0000A1A1000000009C
:1002D300000000000000000000000000000000001B
:0C02E3000000000000000000000000000F
:10087D00E4FDFCC3ED9FEC9E5015E4FBFA0BBB00B1
:0F088D00010AEB64FA4A70F50DBD00010C80E41E
:01089C002239
:1008D3007E08EF30E704D2918002C291C290D29099
:0608E300EF25E0FFDEEC52
:0108E90022EC
:0A092D00C297C2931208D3D297229A
:0509010012092DE4FFC6
:0C090600E4F51FC297D2931208D3D297D9
:0109120022C2
:0408BB00AD07AC06D3
:1008BF00E4F517C297D293AF041208D3AF0512080D
:0308CF00D3D297EA
:0108D2002203
:0E091300C2927F647E0012087DD29202087D9F
:10062C001209137F787E0012087D7F361209017F34
:10063C003A12092D7F051209067FB212092D7F0C83
:10064C001209067F0C120906E4FF1209067F331209
:10065C0009067F331209067FB712092D7F3512095F
:10066C00067FBB12092D7F191209067FC012092DB6
:10067C007F2C1209067FC212092D7F011209067FF9
:10068C00C312092D7F121209067FC412092D7F2077
:10069C001209067FC612092D7F0F1209067FD01290
:1006AC00092D7FA41209067FA11209067FE0120909
:1006BC002D7FD01209067F041209067F0D12090640
:1006CC007F111209067F131209067F2B1209067F70
:1006DC003F1209067F541209067F4C1209067F1837
:1006EC001209067F0D1209067F0B1209067F1F12D5
:1006FC0009067F231209067FE112092D7FD012090A
:10070C00067F041209067F0C1209067F11120906D6
:10071C007F131209067F2C1209067F3F1209067FF0
:10072C00441209067F511209067F2F1209067F1FFA
:10073C001209067F1F1209067F201209067F231259
:10074C0009067F2112092D7F1112092D7F2902091B
:01075C002D6F
:100824008F827F2A120901AF82120906E4FF12099E
:1008340006AF031209067F2B120901AF0512090640
:0F084400E4FF120906AF1E1209067F2C02092DD0
:10089D008A318B32EF2401FBE43EFAED2401F51E83
:0E08AD00E43CF51D120824AF32AE310208BB48
:040853008E088F0973
:10085700751D00751EEF7BEF7A00E4FDFCFFFE12AD
:100867000824E4FBE4FAAF09AE081208BB0ABAF0A1
:05087700F50BBBF0EFE2
:01087C002259
:0804E5007B1F7A007C007E0001
:0C04ED008E088F098C0A8D0B8A0C8B0D79
:1004F900751500751615AB10AA11A9121207D2703D
:100509000302062BC39480500302061DE4F513F57C
:1005190014C3E5149516E51395154003020604ABBB
:1005290010AA11A9121207D2FF90002575F022E531
:1005390014120818E51375F022A42583F583E493B2
:100549006F60030205F99000011207EBFF90002686
:1005590075F022E514120818E51375F022A4258315
:10056900F583E4936F60030205F9E509240FFBE4C1
:100579003508FAE50B240FF51EE4350AF51DAD0B18
:10058900AC0AAF09AE08120824E4FBE4FA9000278C
:1005990075F022E514120818E51375F022A42583D5
:1005A900F583E5822BF582E43583F583E493FD3306
:1005B90095E0FC74807E00A802088006CEA2E713AD
:1005C900CE13D8F8FFEE5CFEEF5D4E6006AF0DAEC0
:1005D9000C8010E50D650F7004E50C650E6007AF22
:1005E9000FAE0E1208BB0ABA08A30BEB6420709B6E
:1005F9000514E5147002051302051A74022512F593
:1006090012E43511F51174102509F509E43508F5D9
:10061900080204FF74012512F512E43511F51102DF
:0206290004FFCC
:01062B0022AC
:0C02EF008E208F218C228D238A248B25E9
:1002FB0085202F852130AB28AA29A92A1207D27075
:10030B00030204E4C3948050030204D6E4F52DF5F4
:10031B002EAB28AA29A92A1207D2FF90002575F027
:10032B0022E52E120818E52D75F022A42583F583FE
:10033B00E4936F60030204A99000011207EBFF9096
:10034B00002675F022E52E120818E52D75F022A473
:10035B002583F583E4936F60030204A9F52BE4F581
:10036B002C90002775F022E52E120818E52D75F05C
:10037B0022A42583F58375F002E52B120818E4936C
:10038B00FD3395E0FC74807E00A82C088006CEA27D
:10039B00E713CE13D8F8FFEE5CFEEF5D4E601C7ECC
:1003AB0000E521252CFFEE3520FE7C00E523252BD7
:1003BB00FDEC3522FCAB25AA248026E525652770AC
:1003CB0004E5246526601D7E00E521252CFFEE3516
:1003DB0020FE7C00E523252BFDEC3522FCAB27AA68
:1003EB002612089D052CE52CC39408500302036CC0
:1003FB00E4F52C90002875F022E52E120818E52D57
:10040B0075F022A42583F58375F002E52B120818ED
:10041B00E493FD3395E0FC74807E00A82C088006E5
:10042B00CEA2E713CE13D8F8FFEE5CFEEF5D4E6065
:10043B0024AF2C7E00E521252CCFEE3520CF2408D0
:10044B00CF3400FE7C00E523252BFDEC3522FCABE5
:10045B0025AA24802EE52565277004E524652660F2
:10046B0025AF2C7E00E521252CCFEE3520CF24089F
:10047B00CF3400FE7C00E523252BFDEC3522FCABB5
:10048B0027AA2612089D052CE52CC39408500302BD
:10049B0003FE052BE52BC394105003020369052EB5
:1004AB00E52E7002052DC39432E52D940050030206
:1004BB00031C7402252AF52AE43529F52974102525
:1004CB0021F521E43520F5200203017401252AF5DD
:0904DB002AE43529F52902030188
:0104E40022F5
:10075D0074FFFFFE120853750EFF750FE07510FF45
:10076D007511007512037D0A7F081204E574FFF5FB
:10077D000EF50FF51075110075120C7D327F1012EC
:10078D0004E5750E00750F1F7510FF7511007512BC
:10079D001374FFFBFA7D467C007F087E001204ED8A
:1007AD00750E00750F1F7510FF75110075121C74F5
:1007BD00FFFBFA7D5A7C007F087E001204ED7F0856
:0507CD007E0702087D1B
:1008EA0053B1FB43B20412062CD29412075D7FACBB
:0708FA007E0D12087D80F461
:03000000020921D1
:0C092100787FE4F6D8FD7581320208EA08
:1007D200BB010689828A83E0225002E722BBFE0225
:0907E200E32289828A83E4932258
:1007EB00BB010CE58229F582E5833AF583E02250C3
:1007FB0006E92582F8E622BBFE06E92582F8E2220D
:0D080B00E58229F582E5833AF583E4932226
:0C081800A42582F582E5F03583F58322EB
:00000001FF
