:020000041000EA
:1000000000B5324B212058609868022188439860DF
:10001000D860186158612E4B002199600221596106
:100020000121F02299502B49196001219960352056
:1000300000F044F80222904214D00621196600F024
:1000400034F8196E01211966002018661A6600F04E
:100050002CF8196E196E196E052000F02FF8012189
:100060000842F9D1002199601B49196000215960AB
:100070001A491B48016001219960EB211966A021F2
:10008000196600F012F800219960164914480160C1
:100090000121996001BC002800D000471248134993
:1000A000086003C880F30888084703B5996A0420EC
:1000B0000142FBD001200142F8D103BD02B5186610
:1000C0001866FFF7F2FF186E186E02BD00000240BE
:1000D000000000180000070000035F00212200005C
:1000E000F4000018222000A00001001008ED00E03C
:1000F00000000000000000000000000074B24E7A12
:1001000000200420F7010010C3010010C5010010F9
:10011000C1010010C1010010C1010010C101001097
:10012000C1010010C1010010C1010010C701001081
:10013000C1010010C1010010C9010010CB01001065
:10014000CD010010CD010010CD010010CD01001037
:10015000CD010010CD010010CD010010CD01001027
:10016000CD010010CD010010CD010010CD01001017
:10017000CD010010CD010010CD010010CD01001007
:10018000CD010010CD010010CD010010CD010010F7
:10019000CD010010CD010010CD010010CD010010E7
:1001A000CD010010CD010010CD010010CD010010D7
:1001B000CD010010CD010010CD010010CD010010C7
:1001C00000BE00BE00BE00BE00BE00BE00F04BF888
:1001D000103800BEF2EB887190480010B84800104B
:1001E0003402001090A31AE700202149086006C8D5
:1001F00081F3088810471F48006800282FD10DA4FC
:100200000ECC002902D000F012F8F9E71A491B4A77
:10021000002000E001C19142FCD1194988471949E9
:1002200088471949884700BEFDE701C901C29A42C3
:10023000FBD37047B8480010C0000020D003002056
:10024000D44B00100000042000000420D44B001008
:1002500000100420001004200000000070470B482C
:1002600001F028FE0047EFF30580C0B270470000A0
:1002700008ED00E0000000D0E0030020FC0D0020AD
:10028000551600105D03001051170010575600005E
:1002900006005250ABB36053444600100600525063
:1002A000861C030254460010060052505422A29DA0
:1002B0007446001005005250DE65F468D44B0010FF
:1002C000F8B5C0460448054B10B5834203D0044B33
:1002D000002B00D0984710BDD0030020D003002091
:1002E0000000000006480749091A8B10C90FC918F9
:1002F00010B5491003D0044B002B00D0984710BD17
:10030000D0030020D00300200000000010B5074CEF
:100310002378002B09D1FFF7D5FF054B002B02D026
:10032000044800E000BF0123237010BDE00400205A
:100330000000000048450010054B10B5002B03D00D
:100340000449054800E000BFFFF7CCFF10BDC046E0
:1003500000000000E404002048450010F8B5CE4637
:10036000474680B502F08EFA03F0DAFE0123994683
:10037000144C154E154D02F077FE00F03BFE23683D
:1003800037689846002913D0FA220023920001F022
:1003900001FE4346C01AB842EDD33B0028784344DF
:1003A000236002F087FA4A462B7853402B70E2E72D
:1003B000FA21890001F0ACFD4346C01AB842DAD3F5
:1003C000EBE7C046100B0020C0020020300B0020DD
:1003D000FA22024B92001A607047C046C002002009
:1003E000FA22014B1A607047C0020020014B024AFA
:1003F0001A607047C0020020C4090000FA22024BB4
:1004000092001A607047C046C0020020002070476A
:1004100010B51A0002AB002100201B7803F0F0FC9D
:1004200010BDC0460048704798450010004870470E
:10043000AC450010004870476C45001070B50028AE
:1004400025D0032830D8194B8000C658300004F05E
:1004500013F8C0B2041C1F2814D8E4B2002820D01E
:100460000023134DAA1CF15C01331180D9B2023272
:100470008C42F8D8C023013464009B001C43280040
:100480002C8070BD1F24E4B20028E9D109E0C1240A
:10049000074D064B02221968A81C02F053F8A4006D
:1004A000EDE7044C024DEAE70020EAE7C402002031
:1004B0001405002002030000094A830094464022EC
:1004C000634410B51C68C0006240C0241440802200
:1004D000520113431C60034B9C466044416010BDB5
:1004E00004C0014000400140034BC0009C466044F2
:1004F00043681F2018407047004001400A4B8000AD
:100500009C4604236044002901D00C230821002AC2
:1005100000D10B00026853400C221A4080235B017B
:10052000184302607047C04604C00140074BC0003A
:100530009C466044036809045940C0239B0219404B
:1005400080235B01184301607047C04604400140AE
:10055000074BC0009C466044036809035940C02310
:100560009B01194080235B01184301607047C0461E
:10057000044001400123D02283401206936293611C
:10058000094A83009446402263441968C0004A40E7
:10059000C02111408022520113431960034B9C4635
:1005A000052360444360704704C00140004001409F
:1005B000F8B5EFF3108772B60E4E3368002BFCD0FF
:1005C000BFF35F8FCB08C4180725A446C45C012382
:1005D0000D40AB4018002040234208D1624623431F
:1005E0001370BFF35F8F306087F31088F8BD100081
:1005F00001F0B0F82C0100D0F8B5CE4647468C4645
:1006000080B5EFF3108872B6214D2C68002CFCD019
:10061000BFF35F8F9A422CD8D4080721055D0619D5
:10062000012411408C402C421FD0072189460639F5
:1006300009E0D408055D06194C460F001440A74098
:100640003C002F4211D001329342F2D201204042AD
:10065000BFF35F8F00220E4B1A6088F310880028CA
:100660000FDB0CBC90469946F8BD2C43100034704B
:10067000EEE7BFF35F8F00232B6088F31088012023
:1006800040426346002BECD0089801F063F8C04666
:100690002C0100D0024B18688007C00F7047C0467D
:1006A00000C006400021044B044ABFF35F8F02C321
:1006B0009342FAD17047C046000100D0800100D0BB
:1006C000044A1078431CDBB2172B00D91023137097
:1006D0007047C046D402002000B5054B83B001002E
:1006E000009318221F230348FFF786FF03B000BDC5
:1006F000CC45001078060020F8B5040006200D0057
:1007000001F0A4F9002845D02B4B2C49E3185A429C
:1007100053418022D20394465B421340284A6344EB
:100720001360284A136018008A689043FBD1224B5B
:100730008021E3185A425341234A5B0049000620B6
:10074000995201F083F92900C00001F0E1FBC309CF
:1007500021D140270122260080256262A362002366
:100760002C36AD0135432B60062001F06FF93900BE
:10077000800001F0CDFB6023E26A53406E221A40F4
:1007800080235B0133431A60104B236310232B60DB
:100790000D3BA364F8BD0E4A934203D900230D4FCD
:1007A0000D4AD8E77F221040013040089F011A000F
:1007B0003F180300CFE7C0460080FCBF00C00040E8
:1007C00000E0004000F00040340B00200103000076
:1007D000FEFF0000C0FF3F00FFFF000083680B48E2
:1007E00010B5844661446244090112019A185918EF
:1007F00054684B6801209C4201D802D00020C0B24E
:1008000010BD12680B689A42F9D8F7E7FFFFFF0F97
:100810000A4B1968EFF3108072B60A68002AFCD000
:10082000BFF35F8F1B68BFF35F8F00221A6080F3F6
:10083000108840BF002000217047C0460C0B0020EC
:10084000F8B557464E464546DE46E0B5434D81462F
:100850008A466A68EFF3108872B61368002BFCD0E2
:10086000BFF35F8F2E68B47B002C3ED067003368E7
:100870003F19033FDA195378B373002B00D1F37398
:100880000023937053701370A968354A8C4649460B
:10089000A218120162441160514651603149D3607F
:1008A00091603268D219937053701370737B9B46BA
:1008B000002B35D022001900B06873689847326861
:1008C000002820D05B4658465B005B44D719033BA9
:1008D000B870D118D35C002B00D07B705B460C70D5
:1008E00073735C451DD0002626E06B68BFF35F8FF5
:1008F0001C6088F31088012040423CBC9046994619
:10090000A246AB46F8BD5B465B005B44033BD31895
:100910009C70D119D25D002A00D05A705B460B70D2
:1009200074734A465346287D00F0DEFB061EDAD07B
:100930002100286800F050FEEB686A681B19013B33
:100940001B78BFF35F8F0021116088F310880020AF
:10095000002ED2D118022043CFE7C046D802002093
:10096000FFFFFF0F11080010F8B5574645464E46E9
:10097000DE46E0B599460CAB19780DAB1B78050047
:1009800090469A460768002912D1BE7B002E45D0BA
:1009900074003B68A419033C1B195A783100BA73E0
:1009A000002A00D1FA7300229A705A701A7003E07C
:1009B0000E004C006418033C2C4B00229C46AB6894
:1009C00061449C464346090161440B604B464B60C1
:1009D0000A9B8B600B9BCB603B681B199A705A700B
:1009E0001A707B7B9B46002B2CD032005946B8688E
:1009F0007B6898473A68002817D05B4658465B00EA
:100A00005B441419033BA070D118D35C002B00D0B9
:100A100063705B460E707B73B34514D030003CBCF2
:100A200090469946A246AB46F8BD5B465B005B44E8
:100A3000033BD3189E701119125D002A00D05A7022
:100A40005B460B707E7342464B46287D00F04CFBA4
:100A5000041E06D05346002B03D13100286800F055
:100A6000BBFD0E9B002BD9D01C70D7E7FFFFFF0FFB
:100A7000F0B5DE464E46574645460023E0B58DB0FC
:100A80000A936B4B8200D3580B90994600239B46E8
:100A90004B46079300F0AEFA079C06000F00626811
:100AA000EFF3108572B61368002BFCD02200079478
:100AB000BFF35F8F2468637B9946002B67D09268F1
:100AC0005C4B90464B441B01984443461A685B6854
:100AD00010001900801BB94100295FDD0B9800F060
:100AE00003FB00230026984600279A46079C63686C
:100AF000BFF35F8F5A461A6085F310885346002B68
:100B000008D10028C6D10DB03CBC90469946A246FB
:100B1000AB46F0BD0A9B414618024B461843D047EE
:100B2000089009916268EFF3108572B61368002B84
:100B3000FCD00794BFF35F8F0899099A002A48DB1D
:100B4000114303D0079B1B69002B5DD1079B1B68DA
:100B5000DA7B002A07D051008A1819688C4649466A
:100B60006244033A51704A46DA734B46079A013B96
:100B7000D168CA5C0132CA545B46079A1361536854
:100B8000BFF35F8F5A461A6085F3108882E700230F
:100B90000026984600279A460020A7E7002901D1A1
:100BA00000289BD10021200000F078FC43461E68FD
:100BB0005F689B68079A9A464346DB689846D36805
:100BC0004B44013B1B780A931B0203431361002033
:100BD0008CE72369002BB9D033003C005B1A9441A9
:100BE0001A002300A74219D89F421BD059460491EE
:100BF00001210391494602914146019151460798CE
:100C00000091FFF7B1FEB7E700F0F4F9089A099BED
:100C100006000F0092197B419942E5D90122524208
:100C2000D317E3E79642E1D901225242D317DDE719
:100C3000FC0A0020FFFFFF0F10B5124C6368002B69
:100C400004D00A21104800F0E1FA10BD23000F4A39
:100C50001021206800F040FB032000F0BFF90320C2
:100C600000F0B4FA03200A4900F0F8F9FFF728FD74
:100C7000084B9C46032360442375074B800060604B
:100C8000DC60DEE7D80200200C0B0020DD0700103E
:100C9000710A001040000034FC0A00200048704730
:100CA000D8020020F0B557464546DE464E46E0B530
:100CB00085B0019310AB1B78002703930023804677
:100CC0009A46009243465A68EFF3108972B6136849
:100CD000002BFCD0BFF35F8F43461D68AC7B002C1C
:100CE0004FD066002B683619033E9B195A78AA73B9
:100CF000002A00D1EA7342469F705F701F709268AD
:100D0000524B94460099019AE3181B016344196001
:100D10005A600E9A9A600F9ADA602B689B199F703E
:100D20005F701F706B7B9B46002B46D02200190022
:100D3000A8686B6898472A68002831D05B465846F7
:100D40005B005B449619033BB070D118D35C002B59
:100D500000D073705B460C706B735C452ED04346BD
:100D6000DB681B19013B187843465B68BFF35F8F54
:100D70001F6089F310885346002B2ED100022043B8
:100D800007E05B68BFF35F8F1C6089F31088012068
:100D9000404205B03CBC90469946A246AB46F0BDE9
:100DA0005B465B005B44033BD3189C709119925DDA
:100DB000002A00D05A705B460B706C734346187D56
:100DC000009A019B00F090F982460028C7D0434664
:100DD0002100186800F000FCC1E7039B002B32D013
:100DE0000E9B00200F999847030004000D000B4351
:100DF00029D000290DDA0098019902000B00121B7E
:100E0000AB41994215D81AD000920193039B9A46A0
:100E100058E700F0EFF802000B00A4185D41200035
:100E2000290000900191AB4203D8EFD100998A428A
:100E3000ECD901235B42DC1700930194E6E70099AB
:100E40009142E1D9F5E70020A3E7C046FFFFFF0F7D
:100E5000F8B5CE46474680B506000C00FFF7F0FC1B
:100E600000280CDC2D4B0020596A8C4203D89B6A69
:100E70000130B34245D30CBC90469946F8BD20BF23
:100E8000274D6A68EFF3108772B61368002BFCD009
:100E9000BFF35F8F2B68C1B29C465B7B8B4235D022
:100EA000FF2303405A0091466246126899449046D7
:100EB0004A464244033A9278002A1DD0EA68000A62
:100EC00090464344013B1B78C0B2834221D06B68FB
:100ED000BFF35F8F00221A6087F310880F4A00204B
:100EE000536A9C42C7D8926A0130B242C3D2E41A14
:100EF000601E8441E0B2BEE72B699842E7D12A61C7
:100F0000E5E7641A601E8441E0B2B4E7FF230340C2
:100F1000D4E7604600F060FBD9E7C04600400540DA
:100F2000D8020020F0B5D6464F464646C0B5EFF38E
:100F300005833F22134018001038EFF3108C72B66F
:100F4000204D2A68002AFCD0BFF35F8F01221100D8
:100F500081401D4C884661631C4917000E788A4603
:100F60003100C1400F400A4215D019498200646A1D
:100F700051588C4219D3174BD25843469E4353467F
:100F80001E70BFF35F8F00232B608CF31088002A44
:100F900006D0904704E0BFF35F8F2F608CF310887A
:100FA0001CBC90469946A246F0BD0B4A9B00904659
:100FB00043441A681A60BFF35F8F00232B608CF3E1
:100FC0001088EDE7280100D000400540310B0020DB
:100FD000140B002068060020D03F054010B501002A
:100FE000024A0348FFF7E4FA10BDC046E845001086
:100FF0002E0B0020034B596A0A00986A596A8A42EC
:10100000FAD170470040054070B504000D00124A47
:10101000536A1900966A536A8B42FAD1300019005C
:1010200024184D41AB4211D80ED02B000A494A6A10
:101030009A42FCD307D1084A02E0516A994202D190
:10104000916AA142F9D370BDA642EED901230124D1
:101050006442E5175B42E9E70040054070B50400D3
:101060000D00EFF3108672B61A4A1368002BFCD0FD
:10107000BFF35F8F002D1BD0200000F0FFFC16494E
:1010800081420AD0200000F001FD0121200000F083
:10109000E3FC0123A340114A1360114BA400E55067
:1010A000BFF35F8F00220B4B1A6086F3108870BD70
:1010B0000B4BA200D5500122A2400A4920000B7818
:1010C00093430B70044900F00BFD0021200000F059
:1010D000C3FCE5E7280100D0250F0010386005406B
:1010E00068060020310B0020F0B54F46D646464634
:1010F000C0B50700304C616A0D00A66A616AA9425A
:10110000FAD18B4208D805D001201CBC90469946E4
:10111000A246F0BDB242F7D9EFF3108972B6274864
:1011200001680029FCD0BFF35F8F01252449BD4031
:101130008C460978204C0E002E438846F1B28A4630
:10114000614650460870391D1E48890065630A5182
:10115000B9000B50216A0020294219D0616A0800A9
:10116000A66A616A8142FAD18B4219D801D1B24292
:1011700016D8C2451DD0104B1F201D625D63012390
:101180000740BB40104A1E381360634642461A703F
:10119000BFF35F8F0022094B1A6089F31088B4E710
:1011A0000020BFF35F8F0022044B1A6089F3108880
:1011B000ABE70120ECE7C04600400540280100D025
:1011C000310B0020140B002080E200E010B5EFF39B
:1011D000108472B60A490B68002BFCD0BFF35F8FF6
:1011E00001238340074A0848136202789A43027039
:1011F000BFF35F8F00230B6084F3108810BDC046DF
:10120000280100D000400540310B0020024B9C46D5
:1012100061448900016070474000003410B504004B
:10122000FFF74EFA01002000FFF7F0FFFF23A38035
:10123000BFF35F8F10BDC04610B50400FFF740FA42
:1012400001002000FFF7E2FF01235B42A380BFF310
:101250005F8F10BD10B504000120FFF73DFA034B6E
:10126000C3189B002360BFF35F8F10BD40000034A4
:1012700070B505000E001400002924D0002A24D0E7
:1012800080686B689847296800280ED063001B1996
:101290007200033B9219CB18033A9E7088188A5C3F
:1012A000002A14D1047030000EE073009B19620014
:1012B000033B1219CB18033A9C7088188A5C002AE9
:1012C00000D05A700670200070BD0800FCE75A700C
:1012D00004703000F8E7C04630B583600023CCB21C
:1012E00043730133047342608373C4730D00006859
:1012F000012C06D9421C0133DBB2137003329C422D
:10130000F9D1FF2129404B00591800234018033818
:10131000437030BDF8B5CE46474606000C0080B598
:10132000002907D04D0003686D18033D5A195778FE
:10133000002F04D120000CBC90469946F8BD7900DE
:10134000C9190339884643445978894600215970A0
:10135000517073683A00210080689847336800280C
:1013600014D042469A18947059195B5D002B00D036
:1013700053700F70270049463000FFF7CBFF39004C
:1013800002003000FFF774FF0400D3E742464146F5
:101390005D19AF709A185B5C002B00D06B701470F5
:1013A000E9E7C046F0B557464546DE464E46E0B54D
:1013B0000D006B0001685B19DF1E0400C85D83B07F
:1013C0000192CA1900284CD043001B18033BCB18CC
:1013D0005E78B446002E16D1019E002E3ED0E67BEC
:1013E000002E04D073009B19CB18033B5D70E5738E
:1013F00000282FD10023537003B03CBC904699467F
:10140000A246AB46F0BD72006244033A89184A789E
:10141000904600224A7091465A7001003200200026
:10142000FFF726FF43468246002B07D05B0021686A
:101430004344033BCB185A78002A16D14246514602
:101440002000FFF715FF2168019BCA19002BC6D1A8
:101450000028CFD043001B18033BCB180021997004
:10146000C8E7019B002BBAD1C4E7500080180338AD
:10147000091848788346484648705870414620000D
:10148000FFF7F6FE594680462000FFF743FF41462E
:1014900002002000FFF7ECFE8046CFE7F0B54E4695
:1014A0004546DE465746E0B5467B040075000068B9
:1014B000AD19033D83B00191415D421900294ED021
:1014C0004B005B18033BC3185F78BC46002F18D154
:1014D000019D002D40D0E57B002D04D06B005B19F1
:1014E000C318033B5E70E673002931D1002330003E
:1014F0005370617303B03CBC90469946A246AB461C
:10150000F0BD7A006244033A801842789346002284
:10151000427091465A7020003A00FFF7A9FE5B46E0
:101520008046002B07D05B0021685B44033BCB184F
:101530005A78002A17D15A4641462000FFF798FEF4
:10154000019B010020684219002BC4D10029CDD095
:101550004B005B18033BC31800209870C6E7019B43
:10156000002BB8D1C2E7500080180338091848781A
:10157000824648464870587059462000FFF778FE6A
:1015800053468346002B07D05B0021685344033B3E
:10159000CB185A78002A06D1594652462000FFF748
:1015A00067FE8346C7E7500080180338091848468D
:1015B0004F784870587051462000FFF759FE3900A7
:1015C00081462000FFF7A6FE494602002000FFF7F3
:1015D0004FFE8246E0E7C04670B5040000292CD0DB
:1015E000437B8B422ED005684800401803382818EA
:1015F0008278002A21D053009B18033BEA5CEE1846
:101600008A4202D11BE0002A08D053009B18033BFA
:10161000EB185A788A42F6D142785A700023012298
:10162000837043702000FFF7BDFE617B0200200045
:10163000FFF71EFE6073012000E0002070BD4378BC
:101640003370EBE701221900FFF7ACFE6073012055
:10165000F4E7C0462F4B304A70B51A602F4A304B22
:1016600030491A6010008B689843FBD12E4C2F4BE9
:101670009C4209D2013B1D1BAD080135AD002D195F
:1016800008CC9847AC42FBD100F082F8284A244BA2
:101690001A60244A9368DB018033FBD14022254B3A
:1016A000254C9A675A671A67DA66244B9C4214D213
:1016B000013B1D1BED080135ED002D1904E0083438
:1016C000FFF7BAFDAC4208D063792000002BF6D1B9
:1016D0000834FFF7A3FDAC42F6D1194C194DA168AF
:1016E000C022280000F02EFFA560FEF7DBFF00F00F
:1016F0002FFBFFF7A1FA144C144B9C4209D2013B7B
:101700001D1BAD080135AD002D1908CC9847A54229
:10171000FBD170BD00E00040BFCDFBFEFE7F3C0072
:1017200000F0004000C00040B8030020C8030020C3
:10173000FFFFFF0100F00140B0030020B8030020CC
:1017400000ED00E000000020C8030020D0030020CE
:1017500000BEFDE70FB400B5084883B000F0C8FF35
:10176000049B002B07D005A91800019100F082FB13
:10177000034800F0BDFF00BEFDE7C0460C46001068
:101780001C46001010B50148FFF7E4FF204600108A
:1017900030B50C2083B000F049FBFEF77BFF00283A
:1017A0000ED0944B944A1A605A609A60DA601A61BB
:1017B0005A619A61DA611A62904A5A6203B030BD86
:1017C0008F4CA06700F03AFB01228E4B1A60636CCD
:1017D000012BFCD103228C4B1A60894A936B012B9D
:1017E000FCD102240121894A89480533009400F084
:1017F000CBFA0523874A01218748009400F0C4FAF8
:10180000864B5A68FF2A02D8802252005A608022F2
:10181000784C7D4B21691201804D1A60002905D05A
:10182000606900F075FB01300138FDD1E0217B4B90
:1018300002201A681140802252012A43116019685F
:10184000484003210140116004219A681142FCD0F4
:101850008022802192012A430901116080225200D6
:101860005A606F4B23616F4B5968FF2900D85A604B
:1018700003226C48634B01211A60020093681942ED
:10188000FCD0E02513681D4080235B0103431D60ED
:1018900012684A400321114019600221614A93688D
:1018A0001942FCD0802380219B0103430901196068
:1018B00080215D4B4900516063615C4B5A68FF2A8F
:1018C00000D8596080225A4BE1691201574D1A60C5
:1018D000002905D0606900F01BFB01300138FDD103
:1018E000E02252490B681A4080235B012B431A60A7
:1018F000802380229B012B4312011A6080223E4BE1
:1019000052004A60E3614B4B5968FF2900D85A6086
:101910008022494B216A1201464D1A60002905D0E8
:10192000606900F0F5FA01300138FDD1E02241494B
:101930000B681A4080235B012B431A6080238022AE
:101940009B012B4312011A60802380225B004B60B5
:10195000294BD2022362394B5968914200D25A6016
:101960008022374B616A1201344D1A60002905D07C
:10197000606900F0CDFA01300138FDD1E0222F4935
:101980000B681A4080235B012B431A60802380225E
:101990009B012B4312011A608023DB024B60174B23
:1019A0006362284B5A68FF2A02D8802252005A608C
:1019B0008022254BA1691201224D1A60002905D011
:1019C000606900F0A5FA01300138FDD1E0221D491F
:1019D0000B681A4080235B012B431A60802380220E
:1019E0009B012B4312011A6080235B004B600E4B5E
:1019F000A361E3E67C060020006CDC021BB700005C
:101A0000008000403CB0004030B00040002F6859DA
:101A10000080024000389C1C00C002403080004022
:101A2000001BB7003C8000404059730754800040C1
:101A300054B000406080004060B000406C800040C6
:101A40006CB000404880004048B00040014B80002E
:101A5000C05870477C06002001238340002904D031
:101A6000034A1360034A13607047034A1360FBE79D
:101A700080E200E000E100E080E100E0024B103095
:101A80009B688000C058704700ED00E070B50D0005
:101A9000EFF3108672B60F4A1368002BFCD0BFF329
:101AA0005F8F0D4B10309B6884001B590B4A93428B
:101AB00003D09D4201D0FFF765FE074B9B681D5187
:101AC000BFF35F8FBFF35F8F0022024B1A6086F374
:101AD000108870BD240100D000ED00E0CD010010A1
:101AE000F0B5DE4657464E464546E0B50C0083B09D
:101AF000EFF3108A72B65B4A1368002BFCD0BFF379
:101B00005F8F1022914681444A46574B96009B684E
:101B10009D59564B98469D4205D0A54216D0544F2C
:101B2000EB1B2F2B14D9504B9B689D51BFF35F8F3C
:101B3000BFF35F8F00224B4B1A608AF3108803B00B
:101B40003CBC90469946A246AB46F0BD1D00EAE774
:101B5000012383409B465A46464B1B681A4000921D
:101B60005A46454B1A60BFF35F8FFEF77CFB01902E
:101B7000002803D0814501D0FFF704FE01232A008D
:101B80009A431300DB1B5B4142495943090D93689B
:101B90009C4208D15BE043001B189B00FB1898682F
:101BA000A04211D01A00062010560028F3DA009B3C
:101BB000002B05D05A46314B1A602E4B1A60B2E703
:101BC0005A462D4B1A60AEE706201856002822DB35
:101BD0004200111889007C188846A1689960E17953
:101BE000D971062161569971A1797F291FD8A488DE
:101BF000F91A6405241544440919E0240905490D1E
:101C000024022143998012181D4B9200BF181A78A4
:101C10001870BA71CBE7019800280BD1FF30907192
:101C200018489080164A107811709871BFE7BD214E
:101C30000902E7E7144A1549D21A083A5002400D42
:101C400001439980124952080A43DA80AFE706201F
:101C5000105613000028BBDA019A002AEAD1454643
:101C6000E0E7C046240100D000ED00E0CD01001007
:101C70000003002000E100E080E100E080E200E0FD
:101C80002F0B002000BDFFFF3A03002000F0FFFFF4
:101C900000F8FFFFAAAA0000F8B5012504000543DB
:101CA000FEF7E1FA0200EFF3108672B621490B68E5
:101CB000002BFCD0BFF35F8F1F492000401A40412A
:101CC000224B43431B0D1D48920087685BB2BF58EF
:101CD000AF421CD006228A569A421CD012228A5643
:101CE0009A4222D01E228A569A4220D02A228A560E
:101CF00003209A4210D0124A11781370A171BFF3D9
:101D00005F8F00220B4B1A6086F31088F8BD816844
:101D10000C488850EFE70020420012189200891802
:101D2000FF228A71084A8A80E5E70120F4E7022051
:101D3000F2E7C046240100D00003002000ED00E0DF
:101D40002F0B0020CD01001000BDFFFFAAAA00004C
:101D5000F0B500220324FF27802620003D00094B18
:101D600011009C461040C0008540A14361440B68AF
:101D70000132AB43350085402B430B60202AECD168
:101D8000F0BDC04600E400E0F8B504000C201700E8
:101D90001D000E0000F0BCF84101091A8B01591A10
:101DA000C90009188901380000F0B2F8069A2B041E
:101DB000120313432268002A21DB184AA218514259
:101DC0004A41802149018C4652420A4014496244EA
:101DD0000A6014490A60144917008D68AF43FBD1AB
:101DE000C021221D8901114321222660A0600A60C2
:101DF0002268002AFCDAE36008230B60F8BD3F226A
:101E000021680A40B242D8D1A2681205120D82425E
:101E1000D3D1E268002BD0D1F0E7C0460040FDBF2F
:101E200000E0004000F0004000C000408023024A73
:101E30009B000343D362704700800540AA23064AF3
:101E40001B0113602F230549D360054B19605368AC
:101E5000002BFCDA7047C0460040024000B0FA0098
:101E60000060024010B5002800D110BD00F032FC27
:101E7000FBE7C04610B5094A0300146884B0002C83
:101E800008D0012200910648524203A9A047012030
:101E900004B010BD00F02CFC0020F9E7F00A00208F
:101EA000651E001001480421014B18475003002013
:101EB000D51E0010142310B50100188804331B88A8
:101EC000984710BD162310B50100188802331B88EF
:101ED000984710BDF0B5C64600B5002916D01423AA
:101EE00004000125984618278900461843462168B2
:101EF00018883B88984701C4431E984140420540DA
:101F0000A642F3D1280004BC9046F0BD0125F9E7B4
:101F1000114A936F9B0813D210665166002905D0B1
:101F2000FFE7FFE7FFE7516F106F704704B5002828
:101F300001D00020C04302F0E7FA002104BDC046F2
:101F4000F0B5146E556E576F166FFFF7E5FF146608
:101F5000556657671667F0BD000000D094464E4A9C
:101F6000926F9208624601D230E0C046F0B54A4E08
:101F7000B56F6D08FCD3346E756E776F366F00F0F9
:101F800025F89446444A14665566576716676246B4
:101F9000F0BDC0469446404A926F9208624601D214
:101FA00058E0C046F0B53C4EB56F6D08FCD3346EBA
:101FB000756E776F366F00F04DF89446364A1466AA
:101FC0005566576716676246F0BDC046002B24DB96
:101FD00011D000293EDA00B5C943404200D1013199
:101FE00000F038F8C943404200D10131DB4352428E
:101FF00000D1013300BD002AEBD1002801D1002916
:1020000005D00020C90FC90701D1C043410800B560
:1020100002F072FA0022002300BD00B500290ADB9D
:10202000DB43524200D1013300F014F8C94340426F
:1020300000D1013100BDC943404200D10131DB4331
:10204000524200D1013300F005F8DB43524200D187
:10205000013300BD002923D1002B18D1002A0CD058
:10206000BC460D4F38667A6600210023FFE7FFE784
:10207000FFE77A6F386F67467047002801D007483E
:10208000010000B502F038FA0022002300BD020072
:102090000B00002000217047000000D0FFFFFFFF71
:1020A000002B00D0BDE0130C26D1002AE7D080B46D
:1020B000104F39667A66FFE7FFE730B4040C7B6F98
:1020C000396F1B0423433B66FFE7FFE7FFE7C0468A
:1020D00084B27B6F3D6F1B0423433B66FFE7FFE742
:1020E000C04600232C042D0C7A6F386F001969410B
:1020F000B0BC7047000000D0F0B594460025140E27
:1021000001D112020835140F01D112010435940FC8
:1021100001D192000235D40F01D152000135D40B08
:102120000134254F7C66254C3C660E0C93B2FFE7CC
:10213000FFE7FFE73C6F6643360C7703BE46734309
:10214000DF0B5B04C01AB941130C7343DB18C91AC7
:10215000CE086643360CB64493B273431F0F1B017F
:10216000C01AB941130C73431F0B1B05C01AB941A8
:10217000860D8F023E436643360C092D24DB520A3E
:102180007243801A7703460A6643360C16235B1B9C
:10219000DE40DF40BF1964466643821B704604354B
:1021A00006330100D940A840C01900D30131A24232
:1021B00006D20023F0BD0000000000D0FFFFFFFFAB
:1021C000121B0130F3D3F1E709277F1BFE40644661
:1021D000A2B27243801A00D20139220C7243130C4E
:1021E0001204821A99410B0070460435133701001E
:1021F000F940A840801900D30131002B02D1A2423E
:102200000AD2F0BD013000D30131121BFAD2013BDA
:10221000F8D1A24200D2F0BD013000D30131121B2F
:10222000F7E7F0B51C0C00D080E00CB400251C0AC8
:1022300004D11B02160E3343120208351C0B04D1C5
:102240001B01160F3343120104359C0B04D19B0074
:10225000960F334392000235DC0B02D192185B419A
:1022600001351C00971864410134464F7C66464C8A
:102270003C660E0CFFE7FFE7FFE7C0463C6F664396
:10228000360C7703BE4697B27743C01B00D20139A4
:10229000C01B00D201399FB27743C91BC91B170C61
:1022A00077437E04FF0B801BB941CE086643360C92
:1022B0000C2D33DBB644120B1F053A431B0B97B2B0
:1022C0007743C01B00D201399FB27743C91B170C5B
:1022D00077433E043F0C801BB941860D8F023E437D
:1022E000664329277F1BFE400C3D7746AF40BF1950
:1022F00030BCA2B2ABB272437343801A9941220C34
:102300007243130C1204801A994102000B0001372A
:10231000001BA941F9D2781E0021F0BD0C277F1BBC
:10232000FE4077467F0BAF40FF19E0E700245D1CBD
:1023300007D0144F7D663966FFE7FFE7FFE7FFE749
:102340003C6F95B29EB265436643401BB141150C8C
:102350001E0C6543664336042F0C3E432D04401B80
:10236000B141994204D202000B0020000021F0BDCF
:1023700001D19042F7D3801A994101349942F2D3A6
:10238000F6E70000000000D0FFFFFFFF132370B549
:102390001D78012D10D00BDD2448FFF793FD244C50
:1023A00001008022200000F0CDF8022D01D070BD88
:1023B0001F4C204AA264FAE72E001D4C1D4AA308B8
:1023C0005B421E401D422FD0330022602020B1000E
:1023D0006118801B0A604A608A60CA600A614A61AB
:1023E0008A61CA610A624A628A62CA620A634A638D
:1023F0008A63CA630A644A648A64CA640A654A656D
:102400008A65CA650A664A668A66CA660A674A674C
:102410004008102803D18A67CA67A264C7E71E3341
:102420009B00E250A264C2E70023CFE753440000C0
:10243000380B00203924001007B5604601880A0ACD
:102440000230DF2AFAD1C9B2820804D30288408858
:102450000004104300E00068014A5050039007BD9B
:10246000380B002051434343C9188C46110C83B2EA
:102470004B4310B4040C614392B280B250436243A8
:102480001C041B0C001910BC59411304120CC01879
:102490005141614470470000132310B512481C7865
:1024A000FFF710FD0100012C0AD003DD80220F4848
:1024B00000F048F80E48FFF7FDFC0E4B186010BD09
:1024C0000A4C5422200000F03DF80B4B6365A365D5
:1024D000E36523666366A366E36623676367A367B2
:1024E000E3672362E361E5E753460000380C002010
:1024F0004C330000380D0020FD24001007B5604665
:1025000001880A0A0230DF2AFAD1C9B2820804D34C
:10251000028840880004104300E00068014A5050DF
:10252000039007BD380C002001480421014B1847D7
:1025300060030020D51E0010014B1B6818470000E7
:1025400060030020014B5B68184700006003002017
:10255000F8B54746CE460D0080B516000700002AA4
:1025600020DD4B1E98461A4B002400209946002C73
:102570002BD043461B5D0D3B5A425341DBB22A5DD3
:102580000A2A13D00134A642F1DC864203DD311A57
:102590003B6828189847AD19013D2B780D3B5A42EE
:1025A00053413B740CBC90469946F8BD002BE9D1D1
:1025B000A04203DA211A3B682818984748460221AE
:1025C0003B68013498472000DDE73B7CD7E7C046F5
:1025D000A4460010F0B557464546DE464E46D02389
:1025E000E0B51B061C68374B83B007000D001800D0
:1025F00001A990469A4601F08FFF8146002808D134
:10260000019B64B29C4204D0504601F095FF012327
:1026100099466B1C03D1380001F02EFF05002A4BB0
:102620001C68002C2FD00A23284E9B4602E0E46849
:10263000002C28D02268002AF9D03368002B01D062
:10264000A342F4D1637C002B2AD02A003900200059
:10265000FFF77EFF4346002BE9D06B465A461A71BE
:10266000637C002B20D0237C002B26D00121236803
:1026700001A898476B461B790D3B5A42534123747E
:10268000E468002CD6D14B46002B12D1681E854140
:10269000E8B203B03CBC90469946A246AB46F0BDBA
:1026A000290038009047D5E70121236801A8984701
:1026B000BDE7504601F018FFE8E70221044823680F
:1026C0009847D7E7B0030020E4060020E806002082
:1026D000A446001010B582B06B4604000022D81D3D
:1026E00001210470FFF776FF200002B010BDC04644
:1026F00070B5040001F0C0FE0122010005002000B9
:10270000FFF768FF084B1C68002C06D06368002B9D
:1027100005D09847E468002CF8D1280070BDE46823
:10272000002CF3D1F9E7C046E40600200D4A1368F7
:10273000002B13D0834202D109E0984208D01A003E
:10274000DB68002BF9D1002900D0D06070471A0057
:102750000029FBD1DB68D360C160F7E70029F5D021
:102760001060F3E7E4060020F0B50D1E15DD0E4BFA
:102770000D271A680D4B4519D31859424B410C4986
:102780005B005E5E20210478A64207D0936919425F
:10279000FCD101301460A842F5D1F0BD9369194213
:1027A000FCD11760F2E7C046280B00200080FCBF78
:1027B000340B002030B50500002912DD0020102464
:1027C000094B013D1A6893691C4208D10130936995
:1027D0001C42FCD113682B548142F4D130BD002837
:1027E000FCD103204042F9E7280B002070B51C0003
:1027F0000A4B15001860FDF77FFF002D03DB022157
:102800002800FDF759FE002C03DB02212000FDF714
:1028100053FE01210248FFF789FF70BD280B0020FD
:102820007003002010B5114C114B22689A4210D150
:10283000104B62689A420CD10F4BA2689A4208D1A1
:1028400000230E482360FFF735FB00210300002022
:102850009847074B00212360064B09486360064BED
:10286000A360FEF7D1FB0023236010BDD00300203E
:10287000DE8116F0299B72BD7ABE59D35542000005
:10288000400D030010B51920FDF774FED0238022FF
:10289000E1211B0692045A620448054B002218608D
:1028A00049020123FFF7A2FF10BDC04600400340CC
:1028B000240B0020D02380221B069204002801D084
:1028C0005A6170479A61FCE7F0B598235746454630
:1028D000DE464E464B4AE0B5D75880253C0085B0D1
:1028E0006D02883B2C4003932F4214D001212320FA
:1028F0000022454B2C001954D9702F315A541A74A8
:1029000000200132414901F049F88022404B9202F7
:102910001A65404B0393FB0630D480239B011F4272
:102920000CD180235B011F4215D1BC4265D105B09B
:102930003CBC90469946A246AB46F0BD1C43314B89
:102940001B6DDB0353D58022314B52021A65802365
:102950005B011F42E9D000222A4D00212A6000209D
:1029600001321C4300F0F0FF8022294B12031A654C
:10297000EB6CDB03D9D501F04FFDD6E7214B9A6D07
:10298000002A26D09A46224BB946002601259B46AE
:10299000170003E06D000136202E19D02F42F9D028
:1029A0005346DB6D5B4601229D6573085C00164B48
:1029B00090469C46B243A41864016444200000F091
:1029C00009FA002807D1AF4301366D00002FE3D18B
:1029D0004F46039CA1E74346A28AA17800200093BA
:1029E000002301F003F8200000F0CEF9EBE701220C
:1029F0000221002000F034FFA5E7210006487940BD
:102A0000FEF7A8FE00001150F00600200000105054
:102A10000030115010000100E446001010B50121F3
:102A20000520FFF719F810BD01222321002310B55E
:102A300006484254C2702F3283540374002200218E
:102A40002030013300F048FA10BDC046F0060020E7
:102A50008022024B5202DA647047C04600201150B7
:102A600070B5050000F068F905201C49FFF70EF865
:102A700080221B4C00212000D200FFF75DFD194B86
:102A8000194A40201A6080235B00638001220023E2
:102A9000212616496270A083A377A1600B60A087EE
:102AA0000238A3552354124912486036FF3663603A
:102AB000E16022706684A062036063622033E254A6
:102AC0000D4BE1621A6480229205DA6490220B4970
:102AD00028009950FFF7BCFF70BDC046C928001000
:102AE000F0060020F40A00208001105084001050ED
:102AF00000011050800010500000115010300100F3
:102B00000B785B0602D14B78052B09D001212320DD
:102B10000022054BD97019542F311A745A5470473A
:102B20008A78024B1A60F1E7F0060020000011508D
:102B30000720F0B54F464646D6464A79CC780B7901
:102B400010400002A4071843A30F99469A467F231A
:102B5000C0B58F783A4E3B40FD0959004A195201E1
:102B6000B218977001276F4057705F425F41D7706E
:102B70004A46012A4CD040284ED84F464A195201A5
:102B8000B21890839777DA00012D49D02D4F002499
:102B9000BC469F016244F719BA601460002B0FD144
:102BA00000226B01F3185A60274ADA6001224B19A0
:102BB0005B010120F2541CBC90469946A246F0BD30
:102BC000DA00224B9C4662447A604B195B01F25C4E
:102BD000002AEBD11E4FF3183A68DA60031C402834
:102BE00000D940233F209BB2D318034201D0834336
:102BF00040333B60174B5A4053469C061443A02277
:102C00004B195B01F3185B68120614431C60CDE797
:102C10008022D2009042B0D301000F48FEF79AFD07
:102C20000E4C9F01A44600246244F719BA62146056
:102C3000002BB5D0074ADB00944663447B62C4E7AF
:102C4000F0060020840010500001105004001050C5
:102C5000F40A002000001050F846001080001050C8
:102C600010B57F200C0020404000E409110000193D
:102C70001A00044B4001C018012300F02DF9012077
:102C800010BDC046F00600207F2270B50D00110077
:102C900029404C00ED090B4E601940013018837833
:102CA0001A4204D17D3ADB09D31A074A936680227F
:102CB0000649120100F06EF8012364196401341909
:102CC000237470BDF006002000201150FFF7FFFFB5
:102CD0007F2270B50D00110029404C00ED090B4E0C
:102CE00060194001301883781A4204D17D3ADB091B
:102CF000D31A074A93660022064900F04BF80023D6
:102D0000641964013419237470BDC046F0060020B4
:102D100000301150FFF7FFFF7F2110B58078044A83
:102D2000C3099B0001409A580248FEF713FDC046B4
:102D3000840300202047001080220E4B520410B55F
:102D40001A600D4B0D491A6010008B689843FBD137
:102D50000B4C9C2200212000FFF7EEFB802200217B
:102D600052010848FFF7E8FB092363670333A367B1
:102D700010BDC04600E0004000F0004000C0004030
:102D80000000115000001050002303614361836173
:102D90007047C04610B58368002901D01C682140E7
:102DA000002A11D08024E400114322420CD01A687A
:102DB00022420BD1064A0A401A60FFE7FFE7FFE70D
:102DC000FFE7FFE7FFE78368196010BDFFF7A4FF87
:102DD000FFFBFFFFF8B5467C0400002E00D169E040
:102DE00083684078196889058D0D002847D1A18A2C
:102DF000691889B2A182A58B628A2B1C3F2D2BD921
:102E00009FB2BC46551AAFB2BC4523D89DB2E382EF
:102E10008A424CD349D0002826D08022D2002A43AF
:102E2000E378002B02D0802189010A4301214B4025
:102E3000A168E3700B685B0543D4234B13400B6020
:102E4000FFE7FFE7FFE7FFE7FFE7FFE70020A368F3
:102E50001A60F8BD2B1CD9E740239FB2BC46551A17
:102E6000AFB2BC45D2D9F5E7A3692A009C46E06819
:102E70006144FFF767FB842212022A43D0E7A3696B
:102E8000A08A9C46E1682A006044FFF75BFBA18AA8
:102E90006078691889B2A1820028ACD0E38AAB427D
:102EA000A9D900236182E382D3E73000D1E7074844
:102EB000FEF750FC7F238178054A06481940FEF74B
:102EC00049FC2000FFF728FFFFFBFFFF6C470010C5
:102ED000840300204047001070B50400002B49D047
:102EE000437C002B01D0002303740023A08BA3821A
:102EF0006282031C3F2830D998B2904223D89DB2F9
:102F0000E382012363746378A161002B2AD08022BD
:102F1000D2002A43E378002B02D0802189010A43A2
:102F200001214B40A168E3700B685B0525D4144B6D
:102F300013400B60FFE7FFE7FFE7FFE7FFE7FFE76F
:102F4000A3681A6070BD131C9DB2E38201236374F1
:102F50006378A161002BDAD104E0402398B290425B
:102F6000CDD9F0E72A00E068FFF7ECFA84221202DC
:102F70002A43CFE7FFF72EFFE4E72000FFF7CCFE60
:102F8000FFFBFFFF014B18787047C0462D0B002058
:102F9000F8B54746CE4680B5294F05003B78002B53
:102FA00004D001200CBC90469946F8BD3722002180
:102FB0002448FFF7C1FA244C2000FEF72FF9234BD9
:102FC0001C60234C20001C30FEF744F9200001F067
:102FD0003BF9204B204E1C60204B9846002B04D020
:102FE000300000E000BF1E4B1860424600243378DA
:102FF000002A1DD01B4A9046194A91469C4210D384
:103000001BD14346984701343378E4B2A342F5D24A
:103010002800FFF725FD2800FFF700FD01233B7086
:10302000BFE74A46630012681B19DB009B58E9E7BB
:1030300000F02EFF3378002BEAD000231B68FFDE60
:103040002D0B002028060020E0050020600600204F
:103050008C030020640600202C0B002000000000E0
:10306000FC040020913E0010F0B5DE4657464E4667
:103070004546E0B58BB001F059F8002800D132E1A7
:10308000B94B07AC9A46B94B9B4653461D68EA6953
:10309000EFF3108372B611680029FCD0BFF35F8F85
:1030A0002B622100280001F045F8EA692B6ABFF382
:1030B0005F8F0021116083F31088002800D112E196
:1030C0006378082BE1D85A469B00D3589F46636823
:1030D000002BDAD0A0689847D7E77F222179A44B4C
:1030E0000A405500C8095B191B181800012620303A
:1030F0004579B543457145790336B5434571002A95
:1031000000D1F7E09B4ADB7C002A06D09A4A12786D
:10311000934200D279E19B1ADBB2002B00D0E2E0AF
:10312000964D62792078A368A847AEE70122904FB8
:1031300001213B78042013433B702523FA5C8A432A
:10314000FA54FA5C8243FA540133FA5C8A43FA5423
:10315000FA5C8243FA5423780020009300F0C0FD0B
:10316000602223791A40602A0DD0402A00D1DDE088
:10317000DB06DB0E012B00D152E1022B00D10FE167
:10318000002B00D1E1E020780021FFF77DFD8021B8
:103190002078FFF779FD78E7794B002B00D174E7B1
:1031A000FDF72CF971E7774B002B00D16DE7704BE1
:1031B00018780007C00FFDF719F966E76E4E6D4AE3
:1031C00000253378002A00D1A3E06F4F9D4208D339
:1031D0009D4200D0A0E00135EDB29D4200D954E7F8
:1031E000F6D239686A008C465219D200624452699C
:1031F000002AF0D02078904701353378EDB29D4217
:10320000E4D942E73722002159482778FFF794F99B
:103210001022FF215D48FFF78FF955481222FF2148
:103220001330FFF789F900F051FD534E514A002544
:103230003378002A64D0564A9046534A9146AB42AE
:103240003FD863D143463800984701353378EDB213
:10325000AB42F4D24F4B002B00D116E7FDF7C0F87C
:1032600013E7434F23783722002138009846FFF7B1
:1032700063F91022FF21F81CFFF75EF938001222D3
:10328000FF211330FFF758F900F020FD3A4E394A7C
:1032900000253378002A42D03B4A91463A00370055
:1032A000464690469D4215D330D1394B3000984761
:1032B00001353B78EDB2AB42F4D247462379BB707F
:1032C000E3E64A4612686B0094465B19DB006344F0
:1032D0005B68B8E74A4612686B0094465B19DB00EE
:1032E00063445B68E2E70BB03CBC90469946A2465B
:1032F000AB46F0BD62792078A36800F005FDC4E616
:10330000380000F0CFFD3378002BA3D000235B689A
:10331000FFDE002B00D1B8E600235B69FFDE4046EC
:1033200000F0C0FD3378002BC8D0EFE71A48002822
:1033300000D128E700F0D4FC0021009808AA00E0A2
:1033400000BF002800D0A0E61DE7202A00D198E0A9
:10335000002A00D017E76379092B00D913E70F4A39
:103360009B00D3589F46C046640600209847001033
:1033700028060020000000002C0B0020B94000109F
:10338000FD030010ED030010FC0400202B060020BC
:10339000A53E0010E103001000000000BC47001033
:1033A0007F25217A0D40082D00D9ECE6CB099846FF
:1033B0006D007B19BF484344DB7C002805D0BE4824
:1033C000007883427ED31B1ADBB2002B76D1002A11
:1033D00000D022E1B94E0222637999469343012B32
:1033E00000D11DE14B46002B00D0CCE67B194344B5
:1033F00020335B7906AA9B07DB0F0232138000980B
:10340000022308A900F006FC3FE65A00D318AC4A94
:10341000DB001268D318002B00D164E71D6980E639
:10342000237A0F2B00D9AEE6A24AFB18DB78002ADC
:1034300005D0A14A1278934258D39B1ADBB2002BD5
:1034400000D0A0E69F489D4D00F04AFC0021EB68AB
:10345000009808AA9847002800D016E660221100BC
:10346000237919401A4200D08DE663790A2B00D1E6
:1034700009E10B2B00D086E6009808A900F0B2FB0A
:1034800003E6237A0F2B00D97DE68A4AFB18DB7806
:10349000002A06D0884A1278934200D2E8E09B1AAC
:1034A000DBB2002B00D06EE68648844D00F018FC9D
:1034B0000021EB68009808AA984742E70026002AF6
:1034C00089D060E67E485E00F3180668DB00F618D7
:1034D000002A80D0002E00D155E6F06800F000FCF4
:1034E0000021F368009808AA98472AE7744A5D000B
:1034F000EB181568DB00ED18002D00D143E6E868F5
:10350000A2E7E388012B00D03DE608223B78009833
:10351000934308A93B7000F065FBB6E502203978BB
:1035200006AB9A1C8B068908DB0F01400B4365E74D
:10353000A37903931A007B78002B02D1002A00D0D4
:10354000C8E0039B009808A97B7000F04BFB9CE54A
:103550007B7806AA023213700098012308A900F0B4
:1035600059FB92E5E388A0791B0A0F2B00D90AE6E4
:10357000554A9B00D3589F4608A800F0B7FBA17995
:103580000098FFF751FA02223B7813433B707CE529
:10359000E388012B00D0F6E508223B78009813431E
:1035A00008A93B7000F01EFB6FE5484B002B00D1D3
:1035B000E9E500E000BF050006AB9E1CA91C022245
:1035C0003000FEF7BFFF2A003388009808A900F0FA
:1035D00021FBB6E63E4B002B00D1D4E500E000BF56
:1035E000021E00D1CFE51378009808A900F012FB65
:1035F000A7E62189FCF722FF021EF4D1C3E5FCF700
:1036000019FF051ED8D1BEE5FCF70CFF12230200FE
:1036100008A9009800F0FEFA93E62A48274E5DE7D5
:10362000E388002B10D14B460098012B34D0FFF7D4
:103630002BFB02217B19434420335A790A43012191
:103640005A715A790A435A71002E00D11DE5F0686B
:1036500000F046FBF368002108AA00989847002074
:1036600000F03EFB2623FB5CDB0700D50DE503E7FE
:10367000134A5D00EB181568DB00ED18002D00D132
:1036800081E5E86812E706AB9A1C117001230098E7
:1036900008A900F0BFFAF8E4FFF71AFB02217B1932
:1036A000434420335A798A4349465A715A798A43A6
:1036B0005A71C9E7000000002C0B002024480010BC
:1036C000FC040020493F0010E44700100000000007
:1036D00000000000501EC0B2FCF7ACFE002800D174
:1036E00051E54378022B00D04DE501210600C27957
:1036F0000936931152110B400A4012015B0113432A
:103700003A782F318A4313433B70C37882781B0287
:103710001343C31804934D4BB84699463700049B96
:10372000BB4200D888E000237A7802930B2A04D1A8
:103730003B780297FB181F005A78042A00D022E534
:10374000049B434ADB1B9BB201934B4600251B782D
:10375000002A10D11CE09D4226D13E4B3900019A2F
:1037600000989847002822D14B4601351B78EDB2CE
:10377000AB4200D207E59D42EDD2374B1B68059363
:10378000059A6B0094465B19DB0063449B68E5E790
:103790003900019A009800F08FFB061E54D14B4669
:1037A0001B78002B00D1EEE400239B68FFDE0600AF
:1037B000082E00D8E7E4019BB34200D2E3E442467E
:1037C000BB78D218D178FF2900D0DCE4D570029AFA
:1037D000002A15D091781000994200D0D3E41279D4
:1037E0007B799A4200D0CEE4C278012A08D9023A05
:1037F00004314144D2B2080001322900FEF79CFE98
:103800007F213A0000238C465178052907D1614673
:1038100090780140490041441331C0090D5411789A
:103820005B189BB25218B342EED34B461B78BF19BC
:10383000AB4200D373E7A6E4084B4746002B00D108
:103840007FE6FCF7C5FD7CE6014DB1E72C0B0020BF
:1038500000000000B93E0010FC040020D10300105D
:1038600030B585B005000C000C22002101A8FEF740
:1038700063FE6B461D715C71042C29D005D8022CA7
:1038800038D0032C51D105B030BD052C4DD12C4B77
:103890001A78D207F7D504211A788A431A70294B6F
:1038A0001C68E269EFF3108172B61368002BFCD03C
:1038B000BFF35F8F2162200001A900F089FCE2695B
:1038C000236ABFF35F8F0021116083F31088DAE76A
:1038D0001B4B1A78D207D6D504211A780A431A70DE
:1038E000184B1C68E269EFF3108172B61368002B65
:1038F000DED1FBE7124B1A78D207C4D501211A7822
:103900008A431A701A780331A2431A7000225A703F
:103910001A788A431A700B4B1C68E269EFF3108126
:1039200072B61368002BC3D1FBE7064B1C68E26933
:10393000EFF3108172B61368002BB9D1FBE7C046D4
:10394000280600206406002070B584B001AD060092
:103950000C000C2200212800FEF7EEFD01236B7005
:103960000D4B2C711C682E70E269EFF3108372B658
:1039700011680029FCD0BFF35F8F2362290020006B
:1039800000F026FCE269236ABFF35F8F002111601B
:1039900083F3108804B070BD64060020002330B5A6
:1039A00085B001AD6B8028700633082202A86B70C9
:1039B000FEF7C8FD0C4B1C68E269EFF3108372B68A
:1039C00011680029FCD0BFF35F8F2362290020001B
:1039D00000F0FEFBE269236ABFF35F8F00211160F4
:1039E00083F3108805B030BD64060020F0B5C646EC
:1039F000804600B584B001AC0F00160000210822FB
:103A000020001D00FEF798FD4346237007236370D6
:103A10000F4B65711D682771A660EA69EFF310838B
:103A200072B611680029FCD0BFF35F8F2B622100B2
:103A3000280000F0CDFBEA692B6ABFF35F8F0021FD
:103A4000116083F3108804B004BC9046F0BDC046FA
:103A500064060020F8B5454657464E46DE46804689
:103A6000E0B50C0017001D000026002A39D0304BAD
:103A70009A469B4699466378052B0AD1E3789B07C3
:103A80009B0FAB4205D1022D3AD0032D2DD0012D35
:103A900006D000203CBC90469946A246AB46F8BDF5
:103AA0004B469B78023B5A425341224A9446634418
:103AB000072260792179024012020A439342E8DB2F
:103AC00021004046FFF734F80028E2D0A378DA0955
:103AD000012A08D00A9A137023780136E418BE42EE
:103AE000C9DB0120D6E70B9AF5E75B469B78023BE2
:103AF0005A425341F0225B42920013404033D7E7D1
:103B000053469B78022B08D00723617922790B401A
:103B10001B021343402BD3D9BBE762790533134013
:103B2000802221791B0292000B439342B1D1C7E757
:103B300028060020FF03000070B57F240C406300BE
:103B4000144CC909E418641820346379DB07DD0FCD
:103B5000002B18D163795B0701D5280070BD0121C6
:103B60000D4E4942306800F0DFFC6379DB07DD0F62
:103B7000002B0AD163795B0708D4042263790125FD
:103B80001343637102E00025E7E70025306800F089
:103B9000ABFCE2E7280600206006002070B57F2419
:103BA0000C4065000E4C06006419C8092418203426
:103BB00065790020ED0700D570BD012560792843A7
:103BC00060713000FFF74CF80028F5D101226379CD
:103BD000934363716379033293436371ECE7C046A7
:103BE0002806002070B50A4E0500082230000C009F
:103BF000FEF7A8FC002161560023C943C90F280025
:103C0000F3600022C901B360FFF7C8FF70BDC04672
:103C100000050020F8B5CE4647469046294E80B5AF
:103C20008146082230000D001F00FEF78BFC434642
:103C3000B3600023F381EC79AB7924021C43231C8D
:103C4000BC4200D93B1C9FB2B381002C12D0002F84
:103C50001ED04346002B32D03B1C402F1ED89FB2B3
:103C600033787F2B1FD80021174A3B004846FFF7C7
:103C700095FF09E0002169560023C943C90F0022BE
:103C80004846C901FFF78AFF0CBC90469946F8BD2B
:103C900033787F2B10D980210022E6E740239FB2A2
:103CA00033787F2BDFD9084C3A0041462000FEF7DD
:103CB00049FC80212200D8E700210022D5E700201E
:103CC000E2E7C04600050020E805002010B51422F8
:103CD00000210248FEF730FC10BDC0460005002060
:103CE000014B18617047C0460005002010B5054C17
:103CF000010008222000FEF725FC0023A360E360FA
:103D000010BDC04600050020F8B53A4C1D002378D0
:103D10000600DA09C9098A4213D00020002D00D01C
:103D2000F8BD354B002B03D021003000FEF7E8FE34
:103D30002369002B43D02200022130009847012044
:103D4000EEE77F2B06D8A068002836D02A002B4942
:103D5000FEF7F8FBA368E28959195219E38892B279
:103D6000E281A160934214D03F2D12D9A589A81AEF
:103D7000071C80B240282ED82378BFB27F2B2CD8C6
:103D80000021AA4234D01D4A3B003000FFF706FF55
:103D9000C6E72369002B05D0220001213000984797
:103DA00000280ED0002161560023C943C90F00220C
:103DB0003000C901FFF7F2FEB2E70020B0E70120B2
:103DC000AEE700213000FEF75FFF30008021FEF7F4
:103DD0005BFF0120A4E74027CEE7AA4207D0074CAB
:103DE0003A002000FEF7AEFB80212200CCE78021C4
:103DF0000022C9E700050020012B0010E805002083
:103E0000F8B58C244746CE464443204E80B534193D
:103E1000050089460020617890461F00FFF78CFE60
:103E200000281DD04B46002B1ED03B1C3F2F29D80D
:103E30008C244A466C43DFB23319083434191A72A1
:103E400041463A00601CFEF77DFB0137FFB28C2033
:103E500045437619220000207178BBB2FFF79EFE21
:103E60000CBC90469946F8BD3B1C402F0CD88C24C6
:103E70006C430834DFB234193A0041462000FEF7A3
:103E800061FBE4E73F23D3E74023F0E7540500203C
:103E900010B58C2200210248FEF74EFB10BDC04633
:103EA0005405002010B58C2200210248FEF744FB87
:103EB00010BDC04654050020F0B54B7906000D003A
:103EC00083B0032B0AD10879C400241A1234A4B297
:103ED000944203D81B4F7B78002B03D00024200092
:103EE00003B0F0BD882309786918F9504B78212B6D
:103EF000F4D10B780200C9187B1C0193BB1C009302
:103F000030000323FFF7A6FD0028E7D0AB79012B93
:103F100014D001233B71AB7802223B708823F958FF
:103F2000B81D0731FEF70EFBB9780029D7D03A004B
:103F3000402330004832FFF731FED0E7EB79FB70C9
:103F4000E7E7C046540500201F2370B5140012781F
:103F5000050082B01340012B17D14F4E20793378E2
:103F6000984212D1602318001040134208D0202834
:103F70000BD163780B2B08D8484A9B00D3589F4637
:103F800000290DD16378062B0CD0002002B070BD43
:103F9000002905D1012321002800414AFFF73AFEFC
:103FA0000120F3E7E378212B5CD0222BEDD1002018
:103FB000FCF73CFA21000200F3882800FFF72AFEF4
:103FC0000120E3E7002917D00229E9D1A178354B78
:103FD0003171002BE4D0002000E000BF0120D5E7C4
:103FE0000029DDD1E178304B7171002B04D0002025
:103FF00000E000BF0028C8D021002800FFF7F2FD34
:104000000120C3E7002938D1E379A2791B021343C9
:10401000402BBAD821002800244AFFF7FBFD0120DD
:10402000B4E70029BCD1012321002800204AFFF772
:10403000F1FD0120AAE70029B2D1E379A0791D4E54
:104040001B020343009300203300E278A178FCF7C1
:10405000DDF9031E99D0320021002800FFF7DAFDB8
:10406000012093E76733F258002A00D18DE7210041
:1040700028001378FFF7CEFD88E7022990D1E37975
:10408000A0791B02034300930020E278A178074B3C
:10409000FCF7BEF9012079E7540500203C480010E8
:1040A0005805002000000000000000009C050020D2
:1040B000590500205C05002070B5164C0500A2785B
:1040C00082B08A420ED16178914210D1124A012405
:1040D000002A04D000201149DAB200E000BF20001D
:1040E00002B070BD627800248A42F8D1EEE7260063
:1040F0009BB2483600220021002000933300FCF7D9
:1041000087F9A178402332002800FFF747FD04001B
:10411000E5E7C04654050020000000005C050020D3
:1041200010B50020FEF734FF10BDC04610B5FEF7F5
:1041300029FF10BD70B5040080690E00002803D06F
:104140000121494200F0F0F9E589208AA9B22A1A32
:1041500083B292B2854202D26089121A92B2A088CA
:10416000904206D2A5890A1AAA4228DC92B222827B
:104170000200002A02D127E01B1A9BB29842FBD909
:10418000E288216853433000C918FEF7DBF90125A6
:1041900001200122218A8BB20918A08981420BDDFE
:1041A00061895B18D3189BB2A0692382002801D0D3
:1041B00000F09AF9280070BD9B189BB2F4E7628961
:1041C00082188A1A92B2D2E700200025E2E7C046A0
:1041D000F8B5040040690E00002803D001214942CF
:1041E00000F0A2F9E289218A95B2531A9BB291425A
:1041F00002D962899B1A9BB2A2889A4220D02B00D6
:10420000954203D39B1A9BB29A42FBD9E28821685C
:104210005343C8183100FEF795F9A389AB420AD978
:104220000135ADB260690127E581002801D000F0B9
:104230005BF93800F8BD6389ED180135ADB2F1E7DF
:10424000277A002FDBD1F4E710B50400406900287D
:1042500003D00121494200F067F9A069002803D08A
:104260000121494200F060F90023E3812382A38801
:1042700060695B009BB25A1E5B42A2816381002889
:1042800001D000F031F9A069002801D000F02CF92C
:10429000012010BD80210B4A4902136D0B42FCD056
:1042A000092304215367084A7733D150074B002074
:1042B0001A68074B0021DA67064B1A68064B1A6426
:1042C0007047C0460000115000301150EC0600202D
:1042D00000400140F80A002000C00140F0B5C64689
:1042E00000B5102084B0FCF7FFF8082869D0364BE1
:1042F000364FDB6F364E3B60364B01221B6C012183
:104300000F203360FCF7FAF802210F20FCF720F9A8
:104310000822314B03211B680F205A401F231340F2
:104320002E4A1360FCF702F9022204212C4BDA67B3
:104330007E3299502B4B743A5A671B6D1B079B0FAB
:10434000012B3BD1FCF7AAFC8046FCF753FEFA2276
:1043500004000D000023920012196B41994211D8FC
:104360000ED001210291002101911F494046009188
:10437000FCF798FC002809DB04B004BC9046F0BDB3
:104380009042EED901225242D317EAE7FA200021E7
:104390008000FCF739FE8021124A4902136D0B425E
:1043A000FCD0092304215367104A7733D1503A686F
:1043B000054BDA673268074B1A64DDE7FDF7E2F96F
:1043C000C0E70B48FDF7C6F900400140EC060020AD
:1043D000F80A002000C001407C4001407C500140B0
:1043E0000020115000001150954200100030115073
:1043F0006C480010074B10B51B6D1B079B0F03D1BA
:10440000FA200021800010BDFFF768FF0020002186
:10441000F9E7C0460000115070B584B0FCF73EFCCF
:104420000600FCF7E7FDFA2204000D0000239200CD
:1044300012196B41994217D814D001210291002121
:1044400001910B4930000091FCF72CFC002807DAA1
:10445000032208490B6D9B081A42FBD0FFF73EFF71
:1044600004B070BD9042E8D901225242D317E4E76C
:10447000F54300100000115010B5830727D00378D2
:10448000002B26D00300032102E01A78002A1CD05A
:1044900001330B42F9D119680F4A104C8A188A432C
:1044A00022420FD1043319680B4A8A188A432242E8
:1044B00008D104331968084A8A188A432242F1D085
:1044C00000E001331A78002AFBD1181A10BD03004E
:1044D000E1E70020FAE7C046FFFEFEFE8080808014
:1044E000F8B5C0460000000001B40248844601BC93
:1044F000604700BF2D02002001B40248844601BC81
:10450000604700BF8902002001B40248844601BC14
:10451000604700BF8902002001B40248844601BC04
:10452000604700BF2101002001B40248844601BC5D
:10453000604700BF7D01002001B40248844601BCF1
:08454000604700BFC10000202C
:1045480054696E795553420054696E795553422027
:1045580044657669636500003132333435360000CE
:104568000904000009022900010100A03209040021
:1045780000020300000009211101000122200007A8
:1045880005010340000A0705810340000A000000F6
:104598001201000200000040FECA044000010102AE
:1045A800030100000600FF0901A101090215002509
:1045B800FF7508954081020903150025FF750895C8
:1045C800409102C04E6F207370696E6C6F636B739D
:1045D8002061726520617661696C61626C650000BA
:1045E800486172647761726520616C61726D202523
:1045F8006420616C726561647920636C61696D65C2
:10460800640000000A2A2A2A2050414E4943202AE1
:104618002A2A0A000A000000486172642061737344
:104628006572740052656C6561736500626F6F74C2
:10463800325F77323571303830000000312E322E3B
:10464800300000007069636F0000000074696E79C3
:104658007573625F6465765F6869645F67656E65D8
:104668007269635F696E6F75740000004175672039
:10467800313220323032310006005250BBFF3CB696
:104688004C46001006005250E182887F34460010E4
:1046980006005250D3F075422C4600100D0A000057
:1046A800646F75626C65207265736574202D3E2099
:1046B800424F4F5453454C000600525053B4F4A196
:1046C800A84600104C454400090052500000000262
:1046D800CC4600100800525012000000556E686168
:1046E8006E646C65642049525120307825780A0040
:1046F80049736F6368726F6E6F757320774D617859
:104708005061636B657453697A6520256420746F02
:104718006F206C61726765006570202564202573C1
:104728002077617320616C726561647920617661BC
:10473800696C61626C65000043616E277420636F69
:104748006E74696E75652078666572206F6E206973
:104758006E61637469766520657020256420257311
:10476800000000005472616E7366657272656420A1
:104778006D6F72652064617461207468616E206574
:1047880078706563746564006F757400696E000005
:104798008A3000106232001004320010BC31001060
:1047A800A6310010983100102C310010DA300010BA
:1047B800CE3000101C350010023500108631001074
:1047C80090350010863100107835001064350010DF
:1047D8008631001050350010303500108631001039
:1047E80008360010FE350010F23500108631001032
:1047F80086310010D4350010863100108631001043
:104808008631001086310010863100108631001084
:104818008631001086310010AA350010913E001034
:10482800A53E0010B93E0010493F0010B9400010E5
:10483800000000008A3F001036400010224000109F
:10484800903F00108A3F00108A3F00108A3F0010F6
:104858008A3F00108A3F001004400010E03F00101B
:10486800C43F00104E6F7420657870656374696E7C
:104878006720444D20746F2062652066756E6374EE
:08488800696F6E20380000008A
:10489000B4020010A80200109C0200108046001014
:1048A000900200108C46001098460010C046001080
:0848B000D0460010DC460010A8
:1048B80070B5D024002524060268EFF3108172B683
:1048C8001368002BFCD0BFF35F8F04230022C3566C
:1048D800A2565E1C16D093420CD14379012B09D9FC
:1048E800013B43710368BFF35F8F00221A6081F3B5
:1048F800108870BD0368BFF35F8F1D6081F3108857
:1049080020BFD9E743790271002BEBD0E8E7C04616
:10491800030030B50068EFF3108472B60268002A0D
:10492800FCD0BFF35F8FD02200201206105604225D
:104938009A56551C14D082420BD0002913D000205F
:104948000A601B68BFF35F8F00221A6084F3108827
:1049580030BD58790128F0D9013858710120F0E7A5
:1049680018710120EDE70020EBE7C046F0B5C64618
:1049780000B50C00804600F08BF8FA2206000F0004
:10498800200000230021920000F08AF88019794164
:1049980004000D008F422DD82AD0D02700263F06CC
:1049A80043461B68EFF3108272B619680029FCD0E1
:1049B800BFF35F8F434600211B7979565BB2581CC1
:1049C8001CD0994203D143465B79012B22D8434638
:1049D8001B68BFF35F8F1E6082F3108820002900D8
:1049E80000F04EF80028DBD0002004BC9046F0BD53
:1049F8008642D2D901246442E517CEE743461971AD
:104A080043461B68BFF35F8F0021196082F310884B
:104A18000120EAE74146013B4B71F1E70268EFF3F9
:104A2800108172B61368002BFCD0BFF35F8F4379F7
:104A3800002B0CD00133DBB24371FF2B11D003687C
:104A4800BFF35F8F00221A6081F310887047FF223E
:104A580002710268BFF35F8F136081F3108840BF53
:104A6800F4E703710368BFF35F8F00221A6081F3D4
:104A7800108840BFEAE7C0467047C0460000000003
:104A880001B40248844601BC604700BF510E0010C3
:104A980001B40248844601BC604700BFF50F00100E
:104AA80001B40248844601BC604700BF6524001079
:104AB800FA000000684500104845001050450010F5
:104AC8006045001010000000F00200200000000007
:104AD800E0030020A4060020000000000000000001
:104AE800B4060020000000000000000010000000D4
:104AF80000000000000001000000000000000000AD
:104B08000000020000000000000000000000030098
:104B180000000000000000000000FF00000000008E
:104B280000B5486801318E4600477046093801498A
:104B3800884700BD991C001000000000000000001C
:104B4800503300004C33000054330000523300004F
:104B58004D5300004D43000053340000433400001F
:104B68006927001000000000B527001000000000B1
:104B78000001000090470010944700103C0D0020F1
:104B880010000C000000E0FF1F0000000000000003
:104B9800000000000000000000000000000000000D
:104BA800000000000000000029250010A51E0010CC
:104BB8008D230010992400103903001025280010B7
:0C4BC800000000000000000000000000E1
:04000005100001E9FD
:00000001FF
